{
  "contractName": "PedersenCommitment",
  "abi": [
    {
      "anonymous": false,
      "inputs": [
        {
          "indexed": true,
          "internalType": "address",
          "name": "sender",
          "type": "address"
        }
      ],
      "name": "LogSender",
      "type": "event"
    },
    {
      "anonymous": false,
      "inputs": [
        {
          "indexed": true,
          "internalType": "uint256",
          "name": "sender",
          "type": "uint256"
        }
      ],
      "name": "LogVal",
      "type": "event"
    },
    {
      "inputs": [],
      "name": "SenderRandomPoint",
      "outputs": [
        {
          "internalType": "uint256",
          "name": "",
          "type": "uint256"
        }
      ],
      "stateMutability": "view",
      "type": "function"
    },
    {
      "inputs": [
        {
          "internalType": "uint256",
          "name": "x1",
          "type": "uint256"
        },
        {
          "internalType": "uint256",
          "name": "y1",
          "type": "uint256"
        },
        {
          "internalType": "uint256",
          "name": "x2",
          "type": "uint256"
        },
        {
          "internalType": "uint256",
          "name": "y2",
          "type": "uint256"
        },
        {
          "internalType": "uint256",
          "name": "curveConst",
          "type": "uint256"
        },
        {
          "internalType": "uint256",
          "name": "mod",
          "type": "uint256"
        }
      ],
      "name": "affineAddition",
      "outputs": [
        {
          "internalType": "uint256",
          "name": "",
          "type": "uint256"
        },
        {
          "internalType": "uint256",
          "name": "",
          "type": "uint256"
        }
      ],
      "stateMutability": "pure",
      "type": "function"
    },
    {
      "inputs": [
        {
          "internalType": "uint256",
          "name": "x",
          "type": "uint256"
        },
        {
          "internalType": "uint256",
          "name": "y",
          "type": "uint256"
        },
        {
          "internalType": "uint256",
          "name": "scalar",
          "type": "uint256"
        },
        {
          "internalType": "uint256",
          "name": "curveConst",
          "type": "uint256"
        },
        {
          "internalType": "uint256",
          "name": "mod",
          "type": "uint256"
        }
      ],
      "name": "affineMul",
      "outputs": [
        {
          "internalType": "uint256",
          "name": "",
          "type": "uint256"
        },
        {
          "internalType": "uint256",
          "name": "",
          "type": "uint256"
        }
      ],
      "stateMutability": "pure",
      "type": "function"
    },
    {
      "inputs": [
        {
          "internalType": "uint256",
          "name": "x1",
          "type": "uint256"
        },
        {
          "internalType": "uint256",
          "name": "y1",
          "type": "uint256"
        },
        {
          "internalType": "uint256",
          "name": "x2",
          "type": "uint256"
        },
        {
          "internalType": "uint256",
          "name": "y2",
          "type": "uint256"
        },
        {
          "internalType": "uint256",
          "name": "curveConst",
          "type": "uint256"
        },
        {
          "internalType": "uint256",
          "name": "mod",
          "type": "uint256"
        }
      ],
      "name": "affineSub",
      "outputs": [
        {
          "internalType": "uint256",
          "name": "",
          "type": "uint256"
        },
        {
          "internalType": "uint256",
          "name": "",
          "type": "uint256"
        }
      ],
      "stateMutability": "pure",
      "type": "function"
    },
    {
      "inputs": [],
      "name": "curveConst",
      "outputs": [
        {
          "internalType": "uint256",
          "name": "",
          "type": "uint256"
        }
      ],
      "stateMutability": "view",
      "type": "function"
    },
    {
      "inputs": [],
      "name": "curveConstB",
      "outputs": [
        {
          "internalType": "uint256",
          "name": "",
          "type": "uint256"
        }
      ],
      "stateMutability": "view",
      "type": "function"
    },
    {
      "inputs": [
        {
          "internalType": "uint256",
          "name": "x1",
          "type": "uint256"
        },
        {
          "internalType": "uint256",
          "name": "y1",
          "type": "uint256"
        },
        {
          "internalType": "uint256",
          "name": "x2",
          "type": "uint256"
        },
        {
          "internalType": "uint256",
          "name": "y2",
          "type": "uint256"
        }
      ],
      "name": "ellipticAdd",
      "outputs": [
        {
          "internalType": "uint256",
          "name": "",
          "type": "uint256"
        },
        {
          "internalType": "uint256",
          "name": "",
          "type": "uint256"
        }
      ],
      "stateMutability": "nonpayable",
      "type": "function"
    },
    {
      "inputs": [
        {
          "internalType": "uint256",
          "name": "scalar",
          "type": "uint256"
        },
        {
          "internalType": "uint256",
          "name": "x",
          "type": "uint256"
        },
        {
          "internalType": "uint256",
          "name": "y",
          "type": "uint256"
        }
      ],
      "name": "ellipticMul",
      "outputs": [
        {
          "internalType": "uint256",
          "name": "",
          "type": "uint256"
        },
        {
          "internalType": "uint256",
          "name": "",
          "type": "uint256"
        }
      ],
      "stateMutability": "nonpayable",
      "type": "function"
    },
    {
      "inputs": [
        {
          "internalType": "uint256",
          "name": "x1",
          "type": "uint256"
        },
        {
          "internalType": "uint256",
          "name": "y1",
          "type": "uint256"
        },
        {
          "internalType": "uint256",
          "name": "x2",
          "type": "uint256"
        },
        {
          "internalType": "uint256",
          "name": "y2",
          "type": "uint256"
        }
      ],
      "name": "ellipticSub",
      "outputs": [
        {
          "internalType": "uint256",
          "name": "",
          "type": "uint256"
        },
        {
          "internalType": "uint256",
          "name": "",
          "type": "uint256"
        }
      ],
      "stateMutability": "nonpayable",
      "type": "function"
    },
    {
      "inputs": [],
      "name": "generatorX",
      "outputs": [
        {
          "internalType": "uint256",
          "name": "",
          "type": "uint256"
        }
      ],
      "stateMutability": "view",
      "type": "function"
    },
    {
      "inputs": [],
      "name": "generatorY",
      "outputs": [
        {
          "internalType": "uint256",
          "name": "",
          "type": "uint256"
        }
      ],
      "stateMutability": "view",
      "type": "function"
    },
    {
      "inputs": [
        {
          "internalType": "uint256",
          "name": "x",
          "type": "uint256"
        },
        {
          "internalType": "uint256",
          "name": "y",
          "type": "uint256"
        },
        {
          "internalType": "uint256",
          "name": "a",
          "type": "uint256"
        },
        {
          "internalType": "uint256",
          "name": "b",
          "type": "uint256"
        },
        {
          "internalType": "uint256",
          "name": "mod",
          "type": "uint256"
        }
      ],
      "name": "isOnCurve",
      "outputs": [
        {
          "internalType": "bool",
          "name": "",
          "type": "bool"
        }
      ],
      "stateMutability": "pure",
      "type": "function"
    },
    {
      "inputs": [
        {
          "internalType": "uint256",
          "name": "x1",
          "type": "uint256"
        },
        {
          "internalType": "uint256",
          "name": "y1",
          "type": "uint256"
        },
        {
          "internalType": "uint256",
          "name": "z1",
          "type": "uint256"
        },
        {
          "internalType": "uint256",
          "name": "x2",
          "type": "uint256"
        },
        {
          "internalType": "uint256",
          "name": "y2",
          "type": "uint256"
        },
        {
          "internalType": "uint256",
          "name": "z2",
          "type": "uint256"
        },
        {
          "internalType": "uint256",
          "name": "mod",
          "type": "uint256"
        }
      ],
      "name": "jacobianAddition",
      "outputs": [
        {
          "internalType": "uint256",
          "name": "",
          "type": "uint256"
        },
        {
          "internalType": "uint256",
          "name": "",
          "type": "uint256"
        },
        {
          "internalType": "uint256",
          "name": "",
          "type": "uint256"
        }
      ],
      "stateMutability": "pure",
      "type": "function"
    },
    {
      "inputs": [
        {
          "internalType": "uint256",
          "name": "x",
          "type": "uint256"
        },
        {
          "internalType": "uint256",
          "name": "y",
          "type": "uint256"
        },
        {
          "internalType": "uint256",
          "name": "z",
          "type": "uint256"
        },
        {
          "internalType": "uint256",
          "name": "curveConst",
          "type": "uint256"
        },
        {
          "internalType": "uint256",
          "name": "mod",
          "type": "uint256"
        }
      ],
      "name": "jacobianDouble",
      "outputs": [
        {
          "internalType": "uint256",
          "name": "",
          "type": "uint256"
        },
        {
          "internalType": "uint256",
          "name": "",
          "type": "uint256"
        },
        {
          "internalType": "uint256",
          "name": "",
          "type": "uint256"
        }
      ],
      "stateMutability": "pure",
      "type": "function"
    },
    {
      "inputs": [
        {
          "internalType": "uint256",
          "name": "x",
          "type": "uint256"
        },
        {
          "internalType": "uint256",
          "name": "y",
          "type": "uint256"
        },
        {
          "internalType": "uint256",
          "name": "z",
          "type": "uint256"
        },
        {
          "internalType": "uint256",
          "name": "scalar",
          "type": "uint256"
        },
        {
          "internalType": "uint256",
          "name": "curveConst",
          "type": "uint256"
        },
        {
          "internalType": "uint256",
          "name": "mod",
          "type": "uint256"
        }
      ],
      "name": "jacobianMultiplication",
      "outputs": [
        {
          "internalType": "uint256",
          "name": "",
          "type": "uint256"
        },
        {
          "internalType": "uint256",
          "name": "",
          "type": "uint256"
        },
        {
          "internalType": "uint256",
          "name": "",
          "type": "uint256"
        }
      ],
      "stateMutability": "pure",
      "type": "function"
    },
    {
      "inputs": [],
      "name": "mod",
      "outputs": [
        {
          "internalType": "uint256",
          "name": "",
          "type": "uint256"
        }
      ],
      "stateMutability": "view",
      "type": "function"
    },
    {
      "inputs": [
        {
          "internalType": "uint256",
          "name": "value",
          "type": "uint256"
        },
        {
          "internalType": "uint256",
          "name": "mod",
          "type": "uint256"
        }
      ],
      "name": "modInverse",
      "outputs": [
        {
          "internalType": "uint256",
          "name": "",
          "type": "uint256"
        }
      ],
      "stateMutability": "pure",
      "type": "function"
    },
    {
      "inputs": [
        {
          "internalType": "uint256",
          "name": "x",
          "type": "uint256"
        },
        {
          "internalType": "uint256",
          "name": "y",
          "type": "uint256"
        },
        {
          "internalType": "uint256",
          "name": "mod",
          "type": "uint256"
        }
      ],
      "name": "pointInverse",
      "outputs": [
        {
          "internalType": "uint256",
          "name": "",
          "type": "uint256"
        },
        {
          "internalType": "uint256",
          "name": "",
          "type": "uint256"
        }
      ],
      "stateMutability": "pure",
      "type": "function"
    },
    {
      "inputs": [],
      "name": "size",
      "outputs": [
        {
          "internalType": "uint256",
          "name": "",
          "type": "uint256"
        }
      ],
      "stateMutability": "view",
      "type": "function"
    },
    {
      "inputs": [
        {
          "internalType": "uint256",
          "name": "x",
          "type": "uint256"
        },
        {
          "internalType": "uint256",
          "name": "y",
          "type": "uint256"
        },
        {
          "internalType": "uint256",
          "name": "z",
          "type": "uint256"
        },
        {
          "internalType": "uint256",
          "name": "mod",
          "type": "uint256"
        }
      ],
      "name": "toAffine",
      "outputs": [
        {
          "internalType": "uint256",
          "name": "",
          "type": "uint256"
        },
        {
          "internalType": "uint256",
          "name": "",
          "type": "uint256"
        }
      ],
      "stateMutability": "pure",
      "type": "function"
    },
    {
      "inputs": [],
      "name": "setPoint",
      "outputs": [],
      "stateMutability": "nonpayable",
      "type": "function"
    },
    {
      "inputs": [],
      "name": "getPoint",
      "outputs": [
        {
          "internalType": "uint256",
          "name": "",
          "type": "uint256"
        }
      ],
      "stateMutability": "nonpayable",
      "type": "function"
    },
    {
      "inputs": [
        {
          "internalType": "uint256",
          "name": "randomValue",
          "type": "uint256"
        },
        {
          "internalType": "uint256",
          "name": "value",
          "type": "uint256"
        }
      ],
      "name": "commit",
      "outputs": [
        {
          "internalType": "uint256",
          "name": "",
          "type": "uint256"
        },
        {
          "internalType": "uint256",
          "name": "",
          "type": "uint256"
        }
      ],
      "stateMutability": "nonpayable",
      "type": "function"
    },
    {
      "inputs": [
        {
          "internalType": "uint256",
          "name": "randomValue",
          "type": "uint256"
        },
        {
          "internalType": "uint256",
          "name": "value",
          "type": "uint256"
        },
        {
          "internalType": "uint256",
          "name": "x",
          "type": "uint256"
        },
        {
          "internalType": "uint256",
          "name": "y",
          "type": "uint256"
        }
      ],
      "name": "verify",
      "outputs": [
        {
          "internalType": "bool",
          "name": "",
          "type": "bool"
        }
      ],
      "stateMutability": "nonpayable",
      "type": "function"
    },
    {
      "inputs": [
        {
          "internalType": "uint256",
          "name": "randomValue1",
          "type": "uint256"
        },
        {
          "internalType": "uint256",
          "name": "x1",
          "type": "uint256"
        },
        {
          "internalType": "uint256",
          "name": "y1",
          "type": "uint256"
        },
        {
          "internalType": "uint256",
          "name": "randomValue2",
          "type": "uint256"
        },
        {
          "internalType": "uint256",
          "name": "x2",
          "type": "uint256"
        },
        {
          "internalType": "uint256",
          "name": "y2",
          "type": "uint256"
        }
      ],
      "name": "addCommitment",
      "outputs": [
        {
          "internalType": "uint256",
          "name": "",
          "type": "uint256"
        },
        {
          "internalType": "uint256",
          "name": "",
          "type": "uint256"
        },
        {
          "internalType": "uint256",
          "name": "",
          "type": "uint256"
        }
      ],
      "stateMutability": "nonpayable",
      "type": "function"
    },
    {
      "inputs": [
        {
          "internalType": "uint256",
          "name": "randomValue1",
          "type": "uint256"
        },
        {
          "internalType": "uint256",
          "name": "x1",
          "type": "uint256"
        },
        {
          "internalType": "uint256",
          "name": "y1",
          "type": "uint256"
        },
        {
          "internalType": "uint256",
          "name": "randomValue2",
          "type": "uint256"
        },
        {
          "internalType": "uint256",
          "name": "x2",
          "type": "uint256"
        },
        {
          "internalType": "uint256",
          "name": "y2",
          "type": "uint256"
        }
      ],
      "name": "subCommitment",
      "outputs": [
        {
          "internalType": "uint256",
          "name": "",
          "type": "uint256"
        },
        {
          "internalType": "uint256",
          "name": "",
          "type": "uint256"
        },
        {
          "internalType": "uint256",
          "name": "",
          "type": "uint256"
        }
      ],
      "stateMutability": "nonpayable",
      "type": "function"
    }
  ],
  "bytecode": "0x60806040527ffffffffffffffffffffffffffffffffffffffffffffffffffffffffefffffc2f5f557ffffffffffffffffffffffffffffffffebaaedce6af48a03bbfd25e8cd03641416001557f79be667ef9dcbbac55a06295ce870b07029bfcdb2dce28d959f2815b16f817986002557f483ada7726a3c4655da4fbfc0e1108a8fd17b448a68554199c47d08ffb10d4b86003555f60045560076005553480156100a7575f80fd5b50611b2d806100b55f395ff3fe608060405234801561000f575f80fd5b506004361061018c575f3560e01c80636a893ec7116100dc578063a9c5afbc11610095578063d8ebf6061161006f578063d8ebf6061461051d578063dafbb2251461054e578063e2800b061461057e578063ff0dd5c11461059c5761018c565b8063a9c5afbc14610488578063c4371a1c146104ba578063caebd4ae146104eb5761018c565b80636a893ec7146103d55780636eb92ae9146103f357806379d921a1146104115780637aeb21821461041b5780637ce5d1031461044c578063949d225d1461046a5761018c565b80633adfed2811610149578063481bedcc11610123578063481bedcc146103245780634eb3f29b146103555780635bea9faa146103865780635bf56bc4146103a45761018c565b80633adfed2814610291578063422ae5bb146102c15780634624baec146102f35761018c565b8063195ff714146101905780632037cd4b146101c25780632986e054146101f35780632a228c771461021157806337103a671461022f5780633a1fa0401461025f575b5f80fd5b6101aa60048036038101906101a59190611418565b6105cd565b6040516101b9939291906114b0565b60405180910390f35b6101dc60048036038101906101d791906114e5565b6106c8565b6040516101ea929190611535565b60405180910390f35b6101fb6106f4565b604051610208919061155c565b60405180910390f35b6102196106f9565b604051610226919061155c565b60405180910390f35b61024960048036038101906102449190611575565b6106ff565b6040516102569190611606565b60405180910390f35b61027960048036038101906102749190611575565b6107c3565b604051610288939291906114b0565b60405180910390f35b6102ab60048036038101906102a6919061161f565b610a0b565b6040516102b8919061155c565b60405180910390f35b6102db60048036038101906102d69190611418565b610b24565b6040516102ea939291906114b0565b60405180910390f35b61030d60048036038101906103089190611575565b610b98565b60405161031b929190611535565b60405180910390f35b61033e600480360381019061033991906114e5565b610be3565b60405161034c929190611535565b60405180910390f35b61036f600480360381019061036a919061165d565b610c0b565b60405161037d929190611535565b60405180910390f35b61038e610c35565b60405161039b919061155c565b60405180910390f35b6103be60048036038101906103b9919061161f565b610c6d565b6040516103cc929190611535565b60405180910390f35b6103dd610cd3565b6040516103ea919061155c565b60405180910390f35b6103fb610cd9565b604051610408919061155c565b60405180910390f35b610419610cdf565b005b61043560048036038101906104309190611418565b610daa565b604051610443929190611535565b60405180910390f35b610454610dee565b604051610461919061155c565b60405180910390f35b610472610df4565b60405161047f919061155c565b60405180910390f35b6104a2600480360381019061049d9190611418565b610dfa565b6040516104b1939291906114b0565b60405180910390f35b6104d460048036038101906104cf919061165d565b610e41565b6040516104e2929190611535565b60405180910390f35b610505600480360381019061050091906116c1565b610eb8565b604051610514939291906114b0565b60405180910390f35b61053760048036038101906105329190611418565b611240565b604051610545929190611535565b60405180910390f35b6105686004803603810190610563919061165d565b6112b5565b6040516105759190611606565b60405180910390f35b6105866112f6565b604051610593919061155c565b60405180910390f35b6105b660048036038101906105b1919061165d565b6112fc565b6040516105c4929190611535565b60405180910390f35b5f805f6105d8611326565b86815f0181815250508981604001818152505088816060018181525050878160800181815250505f99505f9850600197505f8703610620575f806001935093509350506106bc565b5b5f815f0151146106b1575f6001825f01511614610660576106538a8a8a8460400151856060015186608001518b610eb8565b809a50819b50829c505050505b6002815f015161067091906117b8565b815f01818152505061069181604001518260600151836080015189896107c3565b836040018460600185608001838152508381525083815250505050610621565b898989935093509350505b96509650969350505050565b5f808483806106da576106d961175e565b5b5f86866106e791906117e8565b0891509150935093915050565b5f5481565b60065481565b5f8086148061070d57508186145b8061071757505f85145b8061072157508185145b1561072e575f90506107ba565b5f80838061073f5761073e61175e565b5b878809915083806107535761075261175e565b5b8885806107635761076261175e565b5b8a8b090990505f861461079657838061077f5761077e61175e565b5b848061078e5761078d61175e565b5b898809820890505b5f85146107b25783806107ac576107ab61175e565b5b85820890505b808214925050505b95945050505050565b5f805f6107ce611350565b5f805f808a036107ea578b8b8b96509650965050505050610a00565b87806107f9576107f861175e565b5b8c8d09845f01818152505087806108135761081261175e565b5b8b8c09846020018181525050878061082e5761082d61175e565b5b888061083d5761083c61175e565b5b8b8c09898061084f5761084e61175e565b5b8c8d0909846040018181525050878061086b5761086a61175e565b5b888061087a5761087961175e565b5b85602001518e09600409846080018181525050878061089c5761089b61175e565b5b88806108ab576108aa61175e565b5b85604001518b0989806108c1576108c061175e565b5b865f0151600309088460a001818152505087806108e1576108e061175e565b5b8460a001518560a00151098460c001818152505087806109045761090361175e565b5b846020015185602001510984606001818152505087806109275761092661175e565b5b88806109365761093561175e565b5b5f8a806109465761094561175e565b5b87608001516002098b61095991906117e8565b088560c0015108925087806109715761097061175e565b5b88806109805761097f61175e565b5b85606001516008098961099391906117e8565b89806109a2576109a161175e565b5b8a806109b1576109b061175e565b5b868c6109bd91906117e8565b8860800151088760a001510908915087806109db576109da61175e565b5b88806109ea576109e961175e565b5b8b8d096002099050828282965096509650505050505b955095509592505050565b5f80831480610a1b575060018211155b80610a2557508183145b15610a65576040517f08c379a0000000000000000000000000000000000000000000000000000000008152600401610a5c9061190d565b60405180910390fd5b5f80600190505f8590505f8590505f805b5f8414610af8578383610a8991906117b8565b9150848880610a9b57610a9a61175e565b5b8980610aaa57610aa961175e565b5b5f8b80610aba57610ab961175e565b5b8987098c610ac891906117e8565b0888088096508197505050838483610ae0919061192b565b84610aeb91906117e8565b8095508194505050610a76565b5f8610610b0757859050610b15565b8786610b13919061196c565b505b80965050505050505092915050565b5f805f805f808b8c1015610b51578b89610b3e91906117e8565b5f54610b4a91906117e8565b9250610b6c565b5f54898d610b5f91906117e8565b610b69919061199f565b92505b610b788b8b8a8a6112fc565b809250819350505081818495509550955050505096509650969350505050565b5f805f805f805f610bae8c8c60018d8d8d6105cd565b809550819650829750505050610bc68585858b610e41565b809250819350505081819650965050505050509550959350505050565b5f805f80610bf78686896004545f54610b98565b915091508181935093505050935093915050565b5f805f80610c20888888886004545f54611240565b91509150818193509350505094509492505050565b5f6006547f3207cd42393e3290ded24ecd5ea9acaee32a84c8a76e8f37afb0bbe6d8cf204160405160405180910390a2600654905090565b5f805f80610c82600654600254600354610be3565b915091505f80610c93878585610be3565b915091505f80610ca88a600254600354610be3565b915091505f80610cba86868686610c0b565b9150915081819950995050505050505050509250929050565b60055481565b60045481565b5f60065414610d23576040517f08c379a0000000000000000000000000000000000000000000000000000000008152600401610d1a90611a19565b60405180910390fd5b5f4233604051602001610d37929190611acc565b604051602081830303815290604052805190602001205f1c90505f5481610d5e919061199f565b6006819055503373ffffffffffffffffffffffffffffffffffffffff167f7bbdc4cdaf68dae8f82950cdddba2d429ba45cdc33e01ddbf48570514540858c60405160405180910390a250565b5f805f805f80610dbb8a8a896106c8565b8092508193505050610dd18c8c84848c8c611240565b809450819550505083839550955050505050965096945050505050565b60035481565b60015481565b5f805f805f805f5480610e1057610e0f61175e565b5b898d089250610e218b8b8a8a610c0b565b809250819350505081818495509550955050505096509650969350505050565b5f805f805f805f610e528989610a0b565b94508780610e6357610e6261175e565b5b85860993508780610e7757610e7661175e565b5b84860992508780610e8b57610e8a61175e565b5b848c0991508780610e9f57610e9e61175e565b5b838b099050818196509650505050505094509492505050565b5f805f610ec3611386565b5f805f808e148015610ed457505f8d145b15610eeb578a8a8a96509650965050505050611233565b5f8b148015610ef957505f8a145b15610f10578d8d8d96509650965050505050611233565b8780610f1f57610f1e61175e565b5b8c8d09845f0181815250508780610f3957610f3861175e565b5b898a098460200181815250508780610f5457610f5361175e565b5b845f01518d098460400181815250508780610f7257610f7161175e565b5b84602001518a098460600181815250508780610f9157610f9061175e565b5b84602001518f098460800181815250508780610fb057610faf61175e565b5b845f01518c098460a00181815250508780610fce57610fcd61175e565b5b84606001518e098460c00181815250508780610fed57610fec61175e565b5b84604001518b098460e0018181525050878061100c5761100b61175e565b5b888061101b5761101a61175e565b5b5f86608001518b61102c91906117e8565b088560a001510884610100018181525050878061104c5761104b61175e565b5b888061105b5761105a61175e565b5b5f8660c001518b61106c91906117e8565b088560e001510884610120018181525050878061108c5761108b61175e565b5b846101200151856101200151098461014001818152505087806110b2576110b161175e565b5b846101000151856101000151098461016001818152505087806110d8576110d761175e565b5b88806110e7576110e661175e565b5b85610100015186610100015109856101000151098461018001818152505087806111145761111361175e565b5b88806111235761112261175e565b5b89806111325761113161175e565b5b8661016001518760800151096002098961114c91906117e8565b898061115b5761115a61175e565b5b8661018001518b61116c91906117e8565b8761014001510808925087806111855761118461175e565b5b88806111945761119361175e565b5b8561018001518660c0015109896111ab91906117e8565b89806111ba576111b961175e565b5b8a806111c9576111c861175e565b5b868c6111d591906117e8565b8c806111e4576111e361175e565b5b8961016001518a60800151090887610120015109089150878061120a5761120961175e565b5b89898061121a5761121961175e565b5b8e87610100015109099050828282965096509650505050505b9750975097945050505050565b5f805f805f805f8a8d0361126d5761125c8d8d60018c8c6107c3565b80935081945082955050505061128b565b61127e8d8d60018e8e60018e610eb8565b8093508194508295505050505b6112978383838b610e41565b80955081965050508484965096505050505050965096945050505050565b5f805f6112c28787610c6d565b809250819350505084821480156112d857508381145b156112e8576001925050506112ee565b5f925050505b949350505050565b60025481565b5f805f80611311888888886004545f54610daa565b91509150818193509350505094509492505050565b6040518060a001604052805f81526020015f81526020015f81526020015f81526020015f81525090565b6040518060e001604052805f81526020015f81526020015f81526020015f81526020015f81526020015f81526020015f81525090565b604051806101a001604052805f81526020015f81526020015f81526020015f81526020015f81526020015f81526020015f81526020015f81526020015f81526020015f81526020015f81526020015f81526020015f81525090565b5f80fd5b5f819050919050565b6113f7816113e5565b8114611401575f80fd5b50565b5f81359050611412816113ee565b92915050565b5f805f805f8060c08789031215611432576114316113e1565b5b5f61143f89828a01611404565b965050602061145089828a01611404565b955050604061146189828a01611404565b945050606061147289828a01611404565b935050608061148389828a01611404565b92505060a061149489828a01611404565b9150509295509295509295565b6114aa816113e5565b82525050565b5f6060820190506114c35f8301866114a1565b6114d060208301856114a1565b6114dd60408301846114a1565b949350505050565b5f805f606084860312156114fc576114fb6113e1565b5b5f61150986828701611404565b935050602061151a86828701611404565b925050604061152b86828701611404565b9150509250925092565b5f6040820190506115485f8301856114a1565b61155560208301846114a1565b9392505050565b5f60208201905061156f5f8301846114a1565b92915050565b5f805f805f60a0868803121561158e5761158d6113e1565b5b5f61159b88828901611404565b95505060206115ac88828901611404565b94505060406115bd88828901611404565b93505060606115ce88828901611404565b92505060806115df88828901611404565b9150509295509295909350565b5f8115159050919050565b611600816115ec565b82525050565b5f6020820190506116195f8301846115f7565b92915050565b5f8060408385031215611635576116346113e1565b5b5f61164285828601611404565b925050602061165385828601611404565b9150509250929050565b5f805f8060808587031215611675576116746113e1565b5b5f61168287828801611404565b945050602061169387828801611404565b93505060406116a487828801611404565b92505060606116b587828801611404565b91505092959194509250565b5f805f805f805f60e0888a0312156116dc576116db6113e1565b5b5f6116e98a828b01611404565b97505060206116fa8a828b01611404565b965050604061170b8a828b01611404565b955050606061171c8a828b01611404565b945050608061172d8a828b01611404565b93505060a061173e8a828b01611404565b92505060c061174f8a828b01611404565b91505092959891949750929550565b7f4e487b71000000000000000000000000000000000000000000000000000000005f52601260045260245ffd5b7f4e487b71000000000000000000000000000000000000000000000000000000005f52601160045260245ffd5b5f6117c2826113e5565b91506117cd836113e5565b9250826117dd576117dc61175e565b5b828204905092915050565b5f6117f2826113e5565b91506117fd836113e5565b92508282039050818111156118155761181461178b565b5b92915050565b5f82825260208201905092915050565b7f4e756d6265727320617265206e6f742076616c696420666f72206f6e65206f665f8201527f2074686520666f6c6c6f77696e6720726561736f6e733a20312e2056616c756560208201527f20746f20626520696e766572746564206973207a65726f2e0a4d6f64756c757360408201527f206973203c3d20312e0a56616c756520616e64206d6f64756c7573206861766560608201527f2061726520657175616c2e000000000000000000000000000000000000000000608082015250565b5f6118f7608b8361181b565b91506119028261182b565b60a082019050919050565b5f6020820190508181035f830152611924816118eb565b9050919050565b5f611935826113e5565b9150611940836113e5565b925082820261194e816113e5565b915082820484148315176119655761196461178b565b5b5092915050565b5f611976826113e5565b9150611981836113e5565b92508282019050808211156119995761199861178b565b5b92915050565b5f6119a9826113e5565b91506119b4836113e5565b9250826119c4576119c361175e565b5b828206905092915050565b7f43616e6e6f742073657420706f696e74206d6f7265207468616e206f6e6365005f82015250565b5f611a03601f8361181b565b9150611a0e826119cf565b602082019050919050565b5f6020820190508181035f830152611a30816119f7565b9050919050565b5f819050919050565b611a51611a4c826113e5565b611a37565b82525050565b5f73ffffffffffffffffffffffffffffffffffffffff82169050919050565b5f611a8082611a57565b9050919050565b5f8160601b9050919050565b5f611a9d82611a87565b9050919050565b5f611aae82611a93565b9050919050565b611ac6611ac182611a76565b611aa4565b82525050565b5f611ad78285611a40565b602082019150611ae78284611ab5565b601482019150819050939250505056fea2646970667358221220b8bb44b36c7be7e943ca053b050aa495175a7845fc4973e2ea1d3d23ec922cad64736f6c63430008150033",
  "immutableReferences": {},
  "source": "// SPDX-License-Identifier: MIT\n\npragma solidity ^0.8.21;\n\nimport \"./EllipticCurve.sol\";\n\ncontract PedersenCommitment is EllipticCurve {\n    event LogSender(address indexed sender);\n    event LogVal(uint256 indexed sender);\n\n    uint256 public SenderRandomPoint;\n\n    //ensure set at most one time\n    modifier isPointSet() {\n        require(SenderRandomPoint == 0, \"Cannot set point more than once\");\n        _;\n    }\n\n    function setPoint() public isPointSet {\n        uint256 randomValue = uint256(\n            keccak256(abi.encodePacked(block.timestamp, msg.sender))\n        );\n        SenderRandomPoint = randomValue % mod;\n        emit LogSender(msg.sender);\n    }\n\n    function getPoint() public returns (uint256) {\n        emit LogVal(SenderRandomPoint);\n        return SenderRandomPoint;\n    }\n\n    function commit(\n        uint256 randomValue,\n        uint256 value\n    ) public returns (uint256, uint256) {\n        // uint256 x;\n        // uint256 y;\n\n        // uint256 senderRandomX;\n        // uint256 senderRandomY;\n\n        // uint256 x1;\n        // uint256 y1;\n\n        // uint256 x2;\n        // uint256 y2;\n\n        (uint256 senderRandomX, uint256 senderRandomY) = ellipticMul(\n            SenderRandomPoint,\n            generatorX,\n            generatorY\n        );\n        (uint256 x1, uint256 y1) = ellipticMul(\n            value,\n            senderRandomX,\n            senderRandomY\n        );\n        (uint256 x2, uint256 y2) = ellipticMul(\n            randomValue,\n            generatorX,\n            generatorY\n        );\n        (uint256 x, uint256 y) = ellipticAdd(x1, y1, x2, y2);\n        return (x, y);\n    }\n\n    function verify(\n        uint256 randomValue,\n        uint256 value,\n        uint256 x,\n        uint256 y\n    ) public returns (bool) {\n        uint256 xCheck;\n        uint256 yCheck;\n        (xCheck, yCheck) = commit(randomValue, value);\n        if ((xCheck == x) && (yCheck == y)) {\n            return true;\n        } else {\n            return false;\n        }\n    }\n\n    function addCommitment(\n        uint256 randomValue1,\n        uint256 x1,\n        uint256 y1,\n        uint256 randomValue2,\n        uint256 x2,\n        uint256 y2\n    ) public returns (uint256, uint256, uint256) {\n        uint256 randomValue3;\n        uint256 x3;\n        uint256 y3;\n\n        randomValue3 = addmod(randomValue1, randomValue2, mod);\n        (x3, y3) = ellipticAdd(x1, y1, x2, y2);\n\n        return (x3, y3, randomValue3);\n    }\n\n    function subCommitment(\n        uint256 randomValue1,\n        uint256 x1,\n        uint256 y1,\n        uint256 randomValue2,\n        uint256 x2,\n        uint256 y2\n    ) public returns (uint256, uint256, uint256) {\n        uint256 randomValue3;\n        uint256 x3;\n        uint256 y3;\n\n        if (randomValue1 < randomValue1) {\n            randomValue3 = mod - (randomValue2 - randomValue1);\n        } else {\n            randomValue3 = (randomValue1 - randomValue2) % mod;\n        }\n\n        (x3, y3) = ellipticSub(x1, y1, x2, y2);\n\n        return (x3, y3, randomValue3);\n    }\n}\n",
  "sourcePath": "/Users/nico/nycode/PROJECTS/ZKBlockMature/backend/contracts/PedersenCommitment.sol",
  "compiler": {
    "name": "solc",
    "version": "0.8.21+commit.d9974bed.Emscripten.clang"
  },
  "schemaVersion": "3.4.16",
  "updatedAt": "2024-09-11T18:18:38.456Z",
  "devdoc": {
    "kind": "dev",
    "methods": {},
    "version": 1
  },
  "userdoc": {
    "kind": "user",
    "methods": {},
    "version": 1
  }
}