{
  "contractName": "EllipticCurveOperations",
  "abi": [
    {
      "inputs": [
        {
          "internalType": "uint256",
          "name": "value",
          "type": "uint256"
        },
        {
          "internalType": "uint256",
          "name": "mod",
          "type": "uint256"
        }
      ],
      "name": "modInverse",
      "outputs": [
        {
          "internalType": "uint256",
          "name": "",
          "type": "uint256"
        }
      ],
      "stateMutability": "pure",
      "type": "function"
    },
    {
      "inputs": [
        {
          "internalType": "uint256",
          "name": "x",
          "type": "uint256"
        },
        {
          "internalType": "uint256",
          "name": "y",
          "type": "uint256"
        },
        {
          "internalType": "uint256",
          "name": "mod",
          "type": "uint256"
        }
      ],
      "name": "pointInverse",
      "outputs": [
        {
          "internalType": "uint256",
          "name": "",
          "type": "uint256"
        },
        {
          "internalType": "uint256",
          "name": "",
          "type": "uint256"
        }
      ],
      "stateMutability": "pure",
      "type": "function"
    },
    {
      "inputs": [
        {
          "internalType": "uint256",
          "name": "x",
          "type": "uint256"
        },
        {
          "internalType": "uint256",
          "name": "y",
          "type": "uint256"
        },
        {
          "internalType": "uint256",
          "name": "a",
          "type": "uint256"
        },
        {
          "internalType": "uint256",
          "name": "b",
          "type": "uint256"
        },
        {
          "internalType": "uint256",
          "name": "mod",
          "type": "uint256"
        }
      ],
      "name": "isOnCurve",
      "outputs": [
        {
          "internalType": "bool",
          "name": "",
          "type": "bool"
        }
      ],
      "stateMutability": "pure",
      "type": "function"
    },
    {
      "inputs": [
        {
          "internalType": "uint256",
          "name": "x",
          "type": "uint256"
        },
        {
          "internalType": "uint256",
          "name": "y",
          "type": "uint256"
        },
        {
          "internalType": "uint256",
          "name": "z",
          "type": "uint256"
        },
        {
          "internalType": "uint256",
          "name": "mod",
          "type": "uint256"
        }
      ],
      "name": "toAffine",
      "outputs": [
        {
          "internalType": "uint256",
          "name": "",
          "type": "uint256"
        },
        {
          "internalType": "uint256",
          "name": "",
          "type": "uint256"
        }
      ],
      "stateMutability": "pure",
      "type": "function"
    },
    {
      "inputs": [
        {
          "internalType": "uint256",
          "name": "x1",
          "type": "uint256"
        },
        {
          "internalType": "uint256",
          "name": "y1",
          "type": "uint256"
        },
        {
          "internalType": "uint256",
          "name": "z1",
          "type": "uint256"
        },
        {
          "internalType": "uint256",
          "name": "x2",
          "type": "uint256"
        },
        {
          "internalType": "uint256",
          "name": "y2",
          "type": "uint256"
        },
        {
          "internalType": "uint256",
          "name": "z2",
          "type": "uint256"
        },
        {
          "internalType": "uint256",
          "name": "mod",
          "type": "uint256"
        }
      ],
      "name": "jacobianAddition",
      "outputs": [
        {
          "internalType": "uint256",
          "name": "",
          "type": "uint256"
        },
        {
          "internalType": "uint256",
          "name": "",
          "type": "uint256"
        },
        {
          "internalType": "uint256",
          "name": "",
          "type": "uint256"
        }
      ],
      "stateMutability": "pure",
      "type": "function"
    },
    {
      "inputs": [
        {
          "internalType": "uint256",
          "name": "x",
          "type": "uint256"
        },
        {
          "internalType": "uint256",
          "name": "y",
          "type": "uint256"
        },
        {
          "internalType": "uint256",
          "name": "z",
          "type": "uint256"
        },
        {
          "internalType": "uint256",
          "name": "curveConst",
          "type": "uint256"
        },
        {
          "internalType": "uint256",
          "name": "mod",
          "type": "uint256"
        }
      ],
      "name": "jacobianDouble",
      "outputs": [
        {
          "internalType": "uint256",
          "name": "",
          "type": "uint256"
        },
        {
          "internalType": "uint256",
          "name": "",
          "type": "uint256"
        },
        {
          "internalType": "uint256",
          "name": "",
          "type": "uint256"
        }
      ],
      "stateMutability": "pure",
      "type": "function"
    },
    {
      "inputs": [
        {
          "internalType": "uint256",
          "name": "x",
          "type": "uint256"
        },
        {
          "internalType": "uint256",
          "name": "y",
          "type": "uint256"
        },
        {
          "internalType": "uint256",
          "name": "z",
          "type": "uint256"
        },
        {
          "internalType": "uint256",
          "name": "scalar",
          "type": "uint256"
        },
        {
          "internalType": "uint256",
          "name": "curveConst",
          "type": "uint256"
        },
        {
          "internalType": "uint256",
          "name": "mod",
          "type": "uint256"
        }
      ],
      "name": "jacobianMultiplication",
      "outputs": [
        {
          "internalType": "uint256",
          "name": "",
          "type": "uint256"
        },
        {
          "internalType": "uint256",
          "name": "",
          "type": "uint256"
        },
        {
          "internalType": "uint256",
          "name": "",
          "type": "uint256"
        }
      ],
      "stateMutability": "pure",
      "type": "function"
    },
    {
      "inputs": [
        {
          "internalType": "uint256",
          "name": "x1",
          "type": "uint256"
        },
        {
          "internalType": "uint256",
          "name": "y1",
          "type": "uint256"
        },
        {
          "internalType": "uint256",
          "name": "x2",
          "type": "uint256"
        },
        {
          "internalType": "uint256",
          "name": "y2",
          "type": "uint256"
        },
        {
          "internalType": "uint256",
          "name": "curveConst",
          "type": "uint256"
        },
        {
          "internalType": "uint256",
          "name": "mod",
          "type": "uint256"
        }
      ],
      "name": "affineAddition",
      "outputs": [
        {
          "internalType": "uint256",
          "name": "",
          "type": "uint256"
        },
        {
          "internalType": "uint256",
          "name": "",
          "type": "uint256"
        }
      ],
      "stateMutability": "pure",
      "type": "function"
    },
    {
      "inputs": [
        {
          "internalType": "uint256",
          "name": "x1",
          "type": "uint256"
        },
        {
          "internalType": "uint256",
          "name": "y1",
          "type": "uint256"
        },
        {
          "internalType": "uint256",
          "name": "x2",
          "type": "uint256"
        },
        {
          "internalType": "uint256",
          "name": "y2",
          "type": "uint256"
        },
        {
          "internalType": "uint256",
          "name": "curveConst",
          "type": "uint256"
        },
        {
          "internalType": "uint256",
          "name": "mod",
          "type": "uint256"
        }
      ],
      "name": "affineSub",
      "outputs": [
        {
          "internalType": "uint256",
          "name": "",
          "type": "uint256"
        },
        {
          "internalType": "uint256",
          "name": "",
          "type": "uint256"
        }
      ],
      "stateMutability": "pure",
      "type": "function"
    },
    {
      "inputs": [
        {
          "internalType": "uint256",
          "name": "x",
          "type": "uint256"
        },
        {
          "internalType": "uint256",
          "name": "y",
          "type": "uint256"
        },
        {
          "internalType": "uint256",
          "name": "scalar",
          "type": "uint256"
        },
        {
          "internalType": "uint256",
          "name": "curveConst",
          "type": "uint256"
        },
        {
          "internalType": "uint256",
          "name": "mod",
          "type": "uint256"
        }
      ],
      "name": "affineMul",
      "outputs": [
        {
          "internalType": "uint256",
          "name": "",
          "type": "uint256"
        },
        {
          "internalType": "uint256",
          "name": "",
          "type": "uint256"
        }
      ],
      "stateMutability": "pure",
      "type": "function"
    }
  ],
  "bytecode": "0x608060405234801561000f575f80fd5b506113898061001d5f395ff3fe608060405234801561000f575f80fd5b506004361061009c575f3560e01c80634624baec116100645780634624baec146101955780637aeb2182146101c6578063c4371a1c146101f7578063caebd4ae14610228578063d8ebf6061461025a5761009c565b8063195ff714146100a05780632037cd4b146100d257806337103a67146101035780633a1fa040146101335780633adfed2814610165575b5f80fd5b6100ba60048036038101906100b59190610dcc565b61028b565b6040516100c993929190610e64565b60405180910390f35b6100ec60048036038101906100e79190610e99565b610386565b6040516100fa929190610ee9565b60405180910390f35b61011d60048036038101906101189190610f10565b6103b2565b60405161012a9190610fa1565b60405180910390f35b61014d60048036038101906101489190610f10565b610476565b60405161015c93929190610e64565b60405180910390f35b61017f600480360381019061017a9190610fba565b6106be565b60405161018c9190610ff8565b60405180910390f35b6101af60048036038101906101aa9190610f10565b6107d7565b6040516101bd929190610ee9565b60405180910390f35b6101e060048036038101906101db9190610dcc565b610822565b6040516101ee929190610ee9565b60405180910390f35b610211600480360381019061020c9190611011565b610866565b60405161021f929190610ee9565b60405180910390f35b610242600480360381019061023d9190611075565b6108dd565b60405161025193929190610e64565b60405180910390f35b610274600480360381019061026f9190610dcc565b610c65565b604051610282929190610ee9565b60405180910390f35b5f805f610296610cda565b86815f0181815250508981604001818152505088816060018181525050878160800181815250505f99505f9850600197505f87036102de575f8060019350935093505061037a565b5b5f815f01511461036f575f6001825f0151161461031e576103118a8a8a8460400151856060015186608001518b6108dd565b809a50819b50829c505050505b6002815f015161032e919061116c565b815f01818152505061034f8160400151826060015183608001518989610476565b8360400184606001856080018381525083815250838152505050506102df565b898989935093509350505b96509650969350505050565b5f8084838061039857610397611112565b5b5f86866103a5919061119c565b0891509150935093915050565b5f808614806103c057508186145b806103ca57505f85145b806103d457508185145b156103e1575f905061046d565b5f8083806103f2576103f1611112565b5b8788099150838061040657610405611112565b5b88858061041657610415611112565b5b8a8b090990505f861461044957838061043257610431611112565b5b848061044157610440611112565b5b898809820890505b5f851461046557838061045f5761045e611112565b5b85820890505b808214925050505b95945050505050565b5f805f610481610d04565b5f805f808a0361049d578b8b8b965096509650505050506106b3565b87806104ac576104ab611112565b5b8c8d09845f01818152505087806104c6576104c5611112565b5b8b8c0984602001818152505087806104e1576104e0611112565b5b88806104f0576104ef611112565b5b8b8c09898061050257610501611112565b5b8c8d0909846040018181525050878061051e5761051d611112565b5b888061052d5761052c611112565b5b85602001518e09600409846080018181525050878061054f5761054e611112565b5b888061055e5761055d611112565b5b85604001518b09898061057457610573611112565b5b865f0151600309088460a0018181525050878061059457610593611112565b5b8460a001518560a00151098460c001818152505087806105b7576105b6611112565b5b846020015185602001510984606001818152505087806105da576105d9611112565b5b88806105e9576105e8611112565b5b5f8a806105f9576105f8611112565b5b87608001516002098b61060c919061119c565b088560c00151089250878061062457610623611112565b5b888061063357610632611112565b5b856060015160080989610646919061119c565b898061065557610654611112565b5b8a8061066457610663611112565b5b868c610670919061119c565b8860800151088760a0015109089150878061068e5761068d611112565b5b888061069d5761069c611112565b5b8b8d096002099050828282965096509650505050505b955095509592505050565b5f808314806106ce575060018211155b806106d857508183145b15610718576040517f08c379a000000000000000000000000000000000000000000000000000000000815260040161070f906112c1565b60405180910390fd5b5f80600190505f8590505f8590505f805b5f84146107ab57838361073c919061116c565b915084888061074e5761074d611112565b5b898061075d5761075c611112565b5b5f8b8061076d5761076c611112565b5b8987098c61077b919061119c565b088808809650819750505083848361079391906112df565b8461079e919061119c565b8095508194505050610729565b5f86106107ba578590506107c8565b87866107c69190611320565b505b80965050505050505092915050565b5f805f805f805f6107ed8c8c60018d8d8d61028b565b8095508196508297505050506108058585858b610866565b809250819350505081819650965050505050509550959350505050565b5f805f805f806108338a8a89610386565b80925081935050506108498c8c84848c8c610c65565b809450819550505083839550955050505050965096945050505050565b5f805f805f805f61087789896106be565b9450878061088857610887611112565b5b8586099350878061089c5761089b611112565b5b848609925087806108b0576108af611112565b5b848c09915087806108c4576108c3611112565b5b838b099050818196509650505050505094509492505050565b5f805f6108e8610d3a565b5f805f808e1480156108f957505f8d145b15610910578a8a8a96509650965050505050610c58565b5f8b14801561091e57505f8a145b15610935578d8d8d96509650965050505050610c58565b878061094457610943611112565b5b8c8d09845f018181525050878061095e5761095d611112565b5b898a09846020018181525050878061097957610978611112565b5b845f01518d09846040018181525050878061099757610996611112565b5b84602001518a0984606001818152505087806109b6576109b5611112565b5b84602001518f0984608001818152505087806109d5576109d4611112565b5b845f01518c098460a001818152505087806109f3576109f2611112565b5b84606001518e098460c00181815250508780610a1257610a11611112565b5b84604001518b098460e00181815250508780610a3157610a30611112565b5b8880610a4057610a3f611112565b5b5f86608001518b610a51919061119c565b088560a0015108846101000181815250508780610a7157610a70611112565b5b8880610a8057610a7f611112565b5b5f8660c001518b610a91919061119c565b088560e0015108846101200181815250508780610ab157610ab0611112565b5b84610120015185610120015109846101400181815250508780610ad757610ad6611112565b5b84610100015185610100015109846101600181815250508780610afd57610afc611112565b5b8880610b0c57610b0b611112565b5b8561010001518661010001510985610100015109846101800181815250508780610b3957610b38611112565b5b8880610b4857610b47611112565b5b8980610b5757610b56611112565b5b86610160015187608001510960020989610b71919061119c565b8980610b8057610b7f611112565b5b8661018001518b610b91919061119c565b876101400151080892508780610baa57610ba9611112565b5b8880610bb957610bb8611112565b5b8561018001518660c001510989610bd0919061119c565b8980610bdf57610bde611112565b5b8a80610bee57610bed611112565b5b868c610bfa919061119c565b8c80610c0957610c08611112565b5b8961016001518a608001510908876101200151090891508780610c2f57610c2e611112565b5b898980610c3f57610c3e611112565b5b8e87610100015109099050828282965096509650505050505b9750975097945050505050565b5f805f805f805f8a8d03610c9257610c818d8d60018c8c610476565b809350819450829550505050610cb0565b610ca38d8d60018e8e60018e6108dd565b8093508194508295505050505b610cbc8383838b610866565b80955081965050508484965096505050505050965096945050505050565b6040518060a001604052805f81526020015f81526020015f81526020015f81526020015f81525090565b6040518060e001604052805f81526020015f81526020015f81526020015f81526020015f81526020015f81526020015f81525090565b604051806101a001604052805f81526020015f81526020015f81526020015f81526020015f81526020015f81526020015f81526020015f81526020015f81526020015f81526020015f81526020015f81526020015f81525090565b5f80fd5b5f819050919050565b610dab81610d99565b8114610db5575f80fd5b50565b5f81359050610dc681610da2565b92915050565b5f805f805f8060c08789031215610de657610de5610d95565b5b5f610df389828a01610db8565b9650506020610e0489828a01610db8565b9550506040610e1589828a01610db8565b9450506060610e2689828a01610db8565b9350506080610e3789828a01610db8565b92505060a0610e4889828a01610db8565b9150509295509295509295565b610e5e81610d99565b82525050565b5f606082019050610e775f830186610e55565b610e846020830185610e55565b610e916040830184610e55565b949350505050565b5f805f60608486031215610eb057610eaf610d95565b5b5f610ebd86828701610db8565b9350506020610ece86828701610db8565b9250506040610edf86828701610db8565b9150509250925092565b5f604082019050610efc5f830185610e55565b610f096020830184610e55565b9392505050565b5f805f805f60a08688031215610f2957610f28610d95565b5b5f610f3688828901610db8565b9550506020610f4788828901610db8565b9450506040610f5888828901610db8565b9350506060610f6988828901610db8565b9250506080610f7a88828901610db8565b9150509295509295909350565b5f8115159050919050565b610f9b81610f87565b82525050565b5f602082019050610fb45f830184610f92565b92915050565b5f8060408385031215610fd057610fcf610d95565b5b5f610fdd85828601610db8565b9250506020610fee85828601610db8565b9150509250929050565b5f60208201905061100b5f830184610e55565b92915050565b5f805f806080858703121561102957611028610d95565b5b5f61103687828801610db8565b945050602061104787828801610db8565b935050604061105887828801610db8565b925050606061106987828801610db8565b91505092959194509250565b5f805f805f805f60e0888a0312156110905761108f610d95565b5b5f61109d8a828b01610db8565b97505060206110ae8a828b01610db8565b96505060406110bf8a828b01610db8565b95505060606110d08a828b01610db8565b94505060806110e18a828b01610db8565b93505060a06110f28a828b01610db8565b92505060c06111038a828b01610db8565b91505092959891949750929550565b7f4e487b71000000000000000000000000000000000000000000000000000000005f52601260045260245ffd5b7f4e487b71000000000000000000000000000000000000000000000000000000005f52601160045260245ffd5b5f61117682610d99565b915061118183610d99565b92508261119157611190611112565b5b828204905092915050565b5f6111a682610d99565b91506111b183610d99565b92508282039050818111156111c9576111c861113f565b5b92915050565b5f82825260208201905092915050565b7f4e756d6265727320617265206e6f742076616c696420666f72206f6e65206f665f8201527f2074686520666f6c6c6f77696e6720726561736f6e733a20312e2056616c756560208201527f20746f20626520696e766572746564206973207a65726f2e0a4d6f64756c757360408201527f206973203c3d20312e0a56616c756520616e64206d6f64756c7573206861766560608201527f2061726520657175616c2e000000000000000000000000000000000000000000608082015250565b5f6112ab608b836111cf565b91506112b6826111df565b60a082019050919050565b5f6020820190508181035f8301526112d88161129f565b9050919050565b5f6112e982610d99565b91506112f483610d99565b925082820261130281610d99565b915082820484148315176113195761131861113f565b5b5092915050565b5f61132a82610d99565b915061133583610d99565b925082820190508082111561134d5761134c61113f565b5b9291505056fea264697066735822122026b0fae69bad7aef7db6702e74dfd2646d2a345d7eb81250eed55b8fd89b581a64736f6c63430008150033",
  "immutableReferences": {},
  "source": "// SPDX-License-Identifier: MIT\n\npragma solidity ^0.8.21;\n\ncontract EllipticCurveOperations {\n    /*\n        value:uint256 -> value of which to find the modular inverse\n        mod:uint256 -> value of the modulus\n    */\n    function modInverse(\n        uint256 value,\n        uint256 mod\n    ) public pure returns (uint256) {\n        if (value == 0 || mod <= 1 || value == mod) {\n            revert(\n                \"Numbers are not valid for one of the following reasons: 1. Value to be inverted is zero.\\nModulus is <= 1.\\nValue and modulus have are equal.\"\n            );\n        }\n\n        // ax + by = 1 => (coefficient_value * value) + (coefficient_mod * mod) = 1\n\n        uint256 coefficient_value = 0;\n        uint256 coefficient_mod = 1;\n\n        uint256 remainder = value;\n        uint256 dividend = mod;\n        uint256 quotient;\n        uint256 result;\n\n        while (remainder != 0) {\n            quotient = dividend / remainder; // mod/value\n\n            // [x = t1] => t1 = t2 is equale to x = y\n            // [t2 = y] => t2 = t1 - q*t2 equal to  y = x - qy\n\n            // (coefficient_value, coefficient_mod) = (coefficient_mod, ( coefficient_value + (mod - ((quotient * coefficient_mod) % mod) )) % mod );\n            // meno precisi  (coefficient_value, coefficient_mod) = (coefficient_mod, addmod( coefficient_value, ( mod - mulmod(quotient, coefficient_mod, mod) ), mod ) );\n            (coefficient_value, coefficient_mod) = (\n                coefficient_mod,\n                addmod(\n                    coefficient_value,\n                    addmod(\n                        mod - mulmod(quotient, coefficient_mod, mod),\n                        0,\n                        mod\n                    ),\n                    mod\n                )\n            );\n\n            // r1 - q * r2 is the remainder\n            // non so serve o meno il mulmod. una volta era (dividend, remainder) = (remainder, dividend - quotient, remainder );\n            // meno precisi (dividend, remainder) = (remainder, dividend - mulmod(quotient, remainder, mod) );\n            (dividend, remainder) = (\n                remainder,\n                dividend - quotient * remainder\n                // perch qui fare il mulmod mi falsa i calcoli?????\n                // addmod(dividend - mulmod(quotient, remainder, mod), 0, mod)\n            );\n        }\n\n        if (coefficient_value >= 0) {\n            result = coefficient_value;\n        } else {\n            coefficient_value + mod;\n        }\n\n        return result;\n    }\n\n    /*\n        Calcuates the inverse of a point on X axis\n    */\n    function pointInverse(\n        uint256 x,\n        uint256 y,\n        uint256 mod\n    ) public pure returns (uint256, uint256) {\n        // return (x, (mod - y) % mod);\n        return (x, addmod(mod - y, 0, mod));\n    }\n\n    /*\n        This function verifies that a point (x,y) is on curve (y^2 = x^3 + ax + b)\n    */\n    function isOnCurve(\n        uint256 x,\n        uint256 y,\n        uint256 a,\n        uint256 b,\n        uint256 mod\n    ) public pure returns (bool) {\n        if (x == 0 || x == mod || y == 0 || y == mod) {\n            return false;\n        }\n\n        uint256 lhs;\n        uint256 rhs;\n\n        lhs = mulmod(y, y, mod);\n        rhs = mulmod(mulmod(x, x, mod), x, mod);\n\n        // rhs + ax\n        if (a != 0) {\n            rhs = addmod(rhs, mulmod(a, x, mod), mod);\n        }\n\n        // rhs + b\n        if (b != 0) {\n            rhs = addmod(rhs, b, mod);\n        }\n\n        return lhs == rhs;\n    }\n\n    /*\n        This function convets Jacobian coordinates to affine coordinates\n    */\n    function toAffine(\n        uint256 x,\n        uint256 y,\n        uint256 z,\n        uint256 mod\n    ) public pure returns (uint256, uint256) {\n        uint256 z_inv;\n        uint256 z_squared;\n        uint256 z_cubed;\n        uint256 x_affine;\n        uint256 y_affine;\n\n        z_inv = modInverse(z, mod);\n        z_squared = mulmod(z_inv, z_inv, mod);\n        z_cubed = mulmod(z_inv, z_squared, mod);\n        x_affine = mulmod(x, z_squared, mod);\n        y_affine = mulmod(y, z_cubed, mod);\n        return (x_affine, y_affine);\n    }\n\n    struct jacAddTempVar {\n        uint256 z1Squared;\n        uint256 z2Squared;\n        uint256 z1Cubed;\n        uint256 z2Cubed;\n        uint256 u1;\n        uint256 u2;\n        uint256 s1;\n        uint256 s2;\n        uint256 h;\n        uint256 r;\n        uint256 rSquared;\n        uint256 hSquared;\n        uint256 hCubed;\n    }\n\n    function jacobianAddition(\n        uint256 x1,\n        uint256 y1,\n        uint256 z1,\n        uint256 x2,\n        uint256 y2,\n        uint256 z2,\n        uint256 mod\n    ) public pure returns (uint256, uint256, uint256) {\n        // add some checks !!!\n\n        jacAddTempVar memory temp;\n\n        uint256 newX;\n        uint256 newY;\n        uint256 newZ;\n\n        if (x1 == 0 && y1 == 0) {\n            return (x2, y2, z2);\n        }\n        if (x2 == 0 && y2 == 0) {\n            return (x1, y1, z1);\n        }\n\n        temp.z1Squared = mulmod(z1, z1, mod);\n        temp.z2Squared = mulmod(z2, z2, mod);\n\n        temp.z1Cubed = mulmod(z1, temp.z1Squared, mod);\n        temp.z2Cubed = mulmod(z2, temp.z2Squared, mod);\n\n        temp.u1 = mulmod(x1, temp.z2Squared, mod);\n        temp.u2 = mulmod(x2, temp.z1Squared, mod);\n\n        temp.s1 = mulmod(y1, temp.z2Cubed, mod);\n        temp.s2 = mulmod(y2, temp.z1Cubed, mod);\n\n        temp.h = addmod(temp.u2, addmod(mod - temp.u1, 0, mod), mod);\n        // addmod(zs[2], pp - zs[0], pp)\n        temp.r = addmod(temp.s2, addmod(mod - temp.s1, 0, mod), mod);\n\n        temp.rSquared = mulmod(temp.r, temp.r, mod);\n        temp.hSquared = mulmod(temp.h, temp.h, mod);\n        temp.hCubed = mulmod(temp.h, mulmod(temp.h, temp.h, mod), mod);\n\n        // newX = ( ((temp.rSquared + (mod - temp.hCubed) ) ) + (mod - (2 * (temp.u1 * temp.hSquared)%mod)  ) ) % mod;\n        newX = addmod(\n            (addmod(temp.rSquared, (mod - temp.hCubed), mod)),\n            (mod - mulmod(2, mulmod(temp.u1, temp.hSquared, mod), mod)),\n            mod\n        );\n        // newY = ( (temp.r * (temp.u1 * temp.hSquared + (mod-newX) ) ) + (mod - (temp.s1 * temp.hCubed)%mod ) ) % mod;\n        newY = addmod(\n            mulmod(\n                temp.r,\n                addmod(mulmod(temp.u1, temp.hSquared, mod), (mod - newX), mod),\n                mod\n            ),\n            (mod - mulmod(temp.s1, temp.hCubed, mod)),\n            mod\n        );\n        //newZ = (temp.h * z1 * z2) % mod;\n        newZ = mulmod(mulmod(temp.h, z1, mod), z2, mod);\n\n        return (newX, newY, newZ);\n    }\n\n    struct jacDoubleTempVar {\n        uint256 xSquared;\n        uint256 ySquared;\n        uint256 zFourth;\n        uint256 yFourth;\n        uint256 s;\n        uint256 m;\n        uint256 mSquared;\n    }\n\n    function jacobianDouble(\n        uint256 x,\n        uint256 y,\n        uint256 z,\n        uint256 curveConst,\n        uint256 mod\n    ) public pure returns (uint256, uint256, uint256) {\n        jacDoubleTempVar memory temp;\n        uint256 newX;\n        uint256 newY;\n        uint256 newZ;\n\n        if (z == 0) {\n            return (x, y, z);\n        }\n        // check that y not zero otherwise is infinite point\n        temp.xSquared = mulmod(x, x, mod);\n        temp.ySquared = mulmod(y, y, mod);\n        temp.zFourth = mulmod(mulmod(z, z, mod), mulmod(z, z, mod), mod);\n\n        temp.s = mulmod(4, mulmod(x, temp.ySquared, mod), mod);\n        temp.m = addmod(\n            mulmod(3, temp.xSquared, mod),\n            mulmod(curveConst, temp.zFourth, mod),\n            mod\n        );\n\n        temp.mSquared = mulmod(temp.m, temp.m, mod);\n        temp.yFourth = mulmod(temp.ySquared, temp.ySquared, mod);\n\n        newX = addmod(\n            temp.mSquared,\n            addmod(mod - mulmod(2, temp.s, mod), 0, mod),\n            mod\n        );\n        newY = addmod(\n            mulmod(temp.m, addmod(temp.s, (mod - newX), mod), mod),\n            (mod - mulmod(8, temp.yFourth, mod)),\n            mod\n        );\n        newZ = mulmod(2, mulmod(y, z, mod), mod);\n\n        return (newX, newY, newZ);\n    }\n\n    struct jacMulTempVar {\n        uint256 remaining;\n        uint256 scalar;\n        uint256 xCopy;\n        uint256 yCopy;\n        uint256 zCopy;\n    }\n\n    function jacobianMultiplication(\n        uint256 x,\n        uint256 y,\n        uint256 z,\n        uint256 scalar,\n        uint256 curveConst,\n        uint256 mod\n    ) public pure returns (uint256, uint256, uint256) {\n        jacMulTempVar memory temp;\n\n        temp.remaining = scalar;\n        temp.xCopy = x;\n        temp.yCopy = y;\n        temp.zCopy = z;\n\n        x = 0;\n        y = 0;\n        z = 1;\n\n        if (scalar == 0) {\n            return (0, 0, 1);\n        }\n\n        while (temp.remaining != 0) {\n            if ((temp.remaining & 1) != 0) {\n                // P = P+t\n                (x, y, z) = jacobianAddition(\n                    x,\n                    y,\n                    z,\n                    temp.xCopy,\n                    temp.yCopy,\n                    temp.zCopy,\n                    mod\n                );\n            }\n            temp.remaining = temp.remaining / 2;\n            // t = 2*t\n            (temp.xCopy, temp.yCopy, temp.zCopy) = jacobianDouble(\n                temp.xCopy,\n                temp.yCopy,\n                temp.zCopy,\n                curveConst,\n                mod\n            );\n        }\n\n        return (x, y, z);\n    }\n\n    function affineAddition(\n        uint256 x1,\n        uint256 y1,\n        uint256 x2,\n        uint256 y2,\n        uint256 curveConst,\n        uint256 mod\n    ) public pure returns (uint256, uint256) {\n        uint256 xAffine;\n        uint256 yAffine;\n\n        uint256 xRes;\n        uint256 yRes;\n        uint256 zRes;\n\n        if (x1 == x2) {\n            (xRes, yRes, zRes) = jacobianDouble(x1, y1, 1, curveConst, mod);\n        } else {\n            (xRes, yRes, zRes) = jacobianAddition(x1, y1, 1, x2, y2, 1, mod);\n        }\n\n        (xAffine, yAffine) = toAffine(xRes, yRes, zRes, mod);\n        return (xAffine, yAffine);\n    }\n\n    function affineSub(\n        uint256 x1,\n        uint256 y1,\n        uint256 x2,\n        uint256 y2,\n        uint256 curveConst,\n        uint256 mod\n    ) public pure returns (uint256, uint256) {\n        uint256 xAffine;\n        uint256 yAffine;\n\n        uint256 xInv;\n        uint256 yInv;\n\n        (xInv, yInv) = pointInverse(x2, y2, mod);\n\n        (xAffine, yAffine) = affineAddition(\n            x1,\n            y1,\n            xInv,\n            yInv,\n            curveConst,\n            mod\n        );\n\n        return (xAffine, yAffine);\n    }\n\n    function affineMul(\n        uint256 x,\n        uint256 y,\n        uint256 scalar,\n        uint256 curveConst,\n        uint256 mod\n    ) public pure returns (uint256, uint256) {\n        uint256 xRes;\n        uint256 yRes;\n        uint256 zRes;\n        uint256 xAffine;\n        uint256 yAffine;\n\n        (xRes, yRes, zRes) = jacobianMultiplication(\n            x,\n            y,\n            1,\n            scalar,\n            curveConst,\n            mod\n        );\n\n        (xAffine, yAffine) = toAffine(xRes, yRes, zRes, mod);\n\n        return (xAffine, yAffine);\n    }\n}\n",
  "sourcePath": "/Users/nico/nycode/PROJECTS/ZKBlockMature/backend/contracts/EllipticCurveOperations.sol",
  "compiler": {
    "name": "solc",
    "version": "0.8.21+commit.d9974bed.Emscripten.clang"
  },
  "schemaVersion": "3.4.16",
  "updatedAt": "2024-09-11T18:18:38.451Z",
  "devdoc": {
    "kind": "dev",
    "methods": {},
    "version": 1
  },
  "userdoc": {
    "kind": "user",
    "methods": {},
    "version": 1
  }
}