{
  "contractName": "EllipticCurve",
  "abi": [
    {
      "inputs": [
        {
          "internalType": "uint256",
          "name": "x1",
          "type": "uint256"
        },
        {
          "internalType": "uint256",
          "name": "y1",
          "type": "uint256"
        },
        {
          "internalType": "uint256",
          "name": "x2",
          "type": "uint256"
        },
        {
          "internalType": "uint256",
          "name": "y2",
          "type": "uint256"
        },
        {
          "internalType": "uint256",
          "name": "curveConst",
          "type": "uint256"
        },
        {
          "internalType": "uint256",
          "name": "mod",
          "type": "uint256"
        }
      ],
      "name": "affineAddition",
      "outputs": [
        {
          "internalType": "uint256",
          "name": "",
          "type": "uint256"
        },
        {
          "internalType": "uint256",
          "name": "",
          "type": "uint256"
        }
      ],
      "stateMutability": "pure",
      "type": "function"
    },
    {
      "inputs": [
        {
          "internalType": "uint256",
          "name": "x",
          "type": "uint256"
        },
        {
          "internalType": "uint256",
          "name": "y",
          "type": "uint256"
        },
        {
          "internalType": "uint256",
          "name": "scalar",
          "type": "uint256"
        },
        {
          "internalType": "uint256",
          "name": "curveConst",
          "type": "uint256"
        },
        {
          "internalType": "uint256",
          "name": "mod",
          "type": "uint256"
        }
      ],
      "name": "affineMul",
      "outputs": [
        {
          "internalType": "uint256",
          "name": "",
          "type": "uint256"
        },
        {
          "internalType": "uint256",
          "name": "",
          "type": "uint256"
        }
      ],
      "stateMutability": "pure",
      "type": "function"
    },
    {
      "inputs": [
        {
          "internalType": "uint256",
          "name": "x1",
          "type": "uint256"
        },
        {
          "internalType": "uint256",
          "name": "y1",
          "type": "uint256"
        },
        {
          "internalType": "uint256",
          "name": "x2",
          "type": "uint256"
        },
        {
          "internalType": "uint256",
          "name": "y2",
          "type": "uint256"
        },
        {
          "internalType": "uint256",
          "name": "curveConst",
          "type": "uint256"
        },
        {
          "internalType": "uint256",
          "name": "mod",
          "type": "uint256"
        }
      ],
      "name": "affineSub",
      "outputs": [
        {
          "internalType": "uint256",
          "name": "",
          "type": "uint256"
        },
        {
          "internalType": "uint256",
          "name": "",
          "type": "uint256"
        }
      ],
      "stateMutability": "pure",
      "type": "function"
    },
    {
      "inputs": [],
      "name": "curveConst",
      "outputs": [
        {
          "internalType": "uint256",
          "name": "",
          "type": "uint256"
        }
      ],
      "stateMutability": "view",
      "type": "function"
    },
    {
      "inputs": [],
      "name": "curveConstB",
      "outputs": [
        {
          "internalType": "uint256",
          "name": "",
          "type": "uint256"
        }
      ],
      "stateMutability": "view",
      "type": "function"
    },
    {
      "inputs": [],
      "name": "generatorX",
      "outputs": [
        {
          "internalType": "uint256",
          "name": "",
          "type": "uint256"
        }
      ],
      "stateMutability": "view",
      "type": "function"
    },
    {
      "inputs": [],
      "name": "generatorY",
      "outputs": [
        {
          "internalType": "uint256",
          "name": "",
          "type": "uint256"
        }
      ],
      "stateMutability": "view",
      "type": "function"
    },
    {
      "inputs": [
        {
          "internalType": "uint256",
          "name": "x",
          "type": "uint256"
        },
        {
          "internalType": "uint256",
          "name": "y",
          "type": "uint256"
        },
        {
          "internalType": "uint256",
          "name": "a",
          "type": "uint256"
        },
        {
          "internalType": "uint256",
          "name": "b",
          "type": "uint256"
        },
        {
          "internalType": "uint256",
          "name": "mod",
          "type": "uint256"
        }
      ],
      "name": "isOnCurve",
      "outputs": [
        {
          "internalType": "bool",
          "name": "",
          "type": "bool"
        }
      ],
      "stateMutability": "pure",
      "type": "function"
    },
    {
      "inputs": [
        {
          "internalType": "uint256",
          "name": "x1",
          "type": "uint256"
        },
        {
          "internalType": "uint256",
          "name": "y1",
          "type": "uint256"
        },
        {
          "internalType": "uint256",
          "name": "z1",
          "type": "uint256"
        },
        {
          "internalType": "uint256",
          "name": "x2",
          "type": "uint256"
        },
        {
          "internalType": "uint256",
          "name": "y2",
          "type": "uint256"
        },
        {
          "internalType": "uint256",
          "name": "z2",
          "type": "uint256"
        },
        {
          "internalType": "uint256",
          "name": "mod",
          "type": "uint256"
        }
      ],
      "name": "jacobianAddition",
      "outputs": [
        {
          "internalType": "uint256",
          "name": "",
          "type": "uint256"
        },
        {
          "internalType": "uint256",
          "name": "",
          "type": "uint256"
        },
        {
          "internalType": "uint256",
          "name": "",
          "type": "uint256"
        }
      ],
      "stateMutability": "pure",
      "type": "function"
    },
    {
      "inputs": [
        {
          "internalType": "uint256",
          "name": "x",
          "type": "uint256"
        },
        {
          "internalType": "uint256",
          "name": "y",
          "type": "uint256"
        },
        {
          "internalType": "uint256",
          "name": "z",
          "type": "uint256"
        },
        {
          "internalType": "uint256",
          "name": "curveConst",
          "type": "uint256"
        },
        {
          "internalType": "uint256",
          "name": "mod",
          "type": "uint256"
        }
      ],
      "name": "jacobianDouble",
      "outputs": [
        {
          "internalType": "uint256",
          "name": "",
          "type": "uint256"
        },
        {
          "internalType": "uint256",
          "name": "",
          "type": "uint256"
        },
        {
          "internalType": "uint256",
          "name": "",
          "type": "uint256"
        }
      ],
      "stateMutability": "pure",
      "type": "function"
    },
    {
      "inputs": [
        {
          "internalType": "uint256",
          "name": "x",
          "type": "uint256"
        },
        {
          "internalType": "uint256",
          "name": "y",
          "type": "uint256"
        },
        {
          "internalType": "uint256",
          "name": "z",
          "type": "uint256"
        },
        {
          "internalType": "uint256",
          "name": "scalar",
          "type": "uint256"
        },
        {
          "internalType": "uint256",
          "name": "curveConst",
          "type": "uint256"
        },
        {
          "internalType": "uint256",
          "name": "mod",
          "type": "uint256"
        }
      ],
      "name": "jacobianMultiplication",
      "outputs": [
        {
          "internalType": "uint256",
          "name": "",
          "type": "uint256"
        },
        {
          "internalType": "uint256",
          "name": "",
          "type": "uint256"
        },
        {
          "internalType": "uint256",
          "name": "",
          "type": "uint256"
        }
      ],
      "stateMutability": "pure",
      "type": "function"
    },
    {
      "inputs": [],
      "name": "mod",
      "outputs": [
        {
          "internalType": "uint256",
          "name": "",
          "type": "uint256"
        }
      ],
      "stateMutability": "view",
      "type": "function"
    },
    {
      "inputs": [
        {
          "internalType": "uint256",
          "name": "value",
          "type": "uint256"
        },
        {
          "internalType": "uint256",
          "name": "mod",
          "type": "uint256"
        }
      ],
      "name": "modInverse",
      "outputs": [
        {
          "internalType": "uint256",
          "name": "",
          "type": "uint256"
        }
      ],
      "stateMutability": "pure",
      "type": "function"
    },
    {
      "inputs": [
        {
          "internalType": "uint256",
          "name": "x",
          "type": "uint256"
        },
        {
          "internalType": "uint256",
          "name": "y",
          "type": "uint256"
        },
        {
          "internalType": "uint256",
          "name": "mod",
          "type": "uint256"
        }
      ],
      "name": "pointInverse",
      "outputs": [
        {
          "internalType": "uint256",
          "name": "",
          "type": "uint256"
        },
        {
          "internalType": "uint256",
          "name": "",
          "type": "uint256"
        }
      ],
      "stateMutability": "pure",
      "type": "function"
    },
    {
      "inputs": [],
      "name": "size",
      "outputs": [
        {
          "internalType": "uint256",
          "name": "",
          "type": "uint256"
        }
      ],
      "stateMutability": "view",
      "type": "function"
    },
    {
      "inputs": [
        {
          "internalType": "uint256",
          "name": "x",
          "type": "uint256"
        },
        {
          "internalType": "uint256",
          "name": "y",
          "type": "uint256"
        },
        {
          "internalType": "uint256",
          "name": "z",
          "type": "uint256"
        },
        {
          "internalType": "uint256",
          "name": "mod",
          "type": "uint256"
        }
      ],
      "name": "toAffine",
      "outputs": [
        {
          "internalType": "uint256",
          "name": "",
          "type": "uint256"
        },
        {
          "internalType": "uint256",
          "name": "",
          "type": "uint256"
        }
      ],
      "stateMutability": "pure",
      "type": "function"
    },
    {
      "inputs": [
        {
          "internalType": "uint256",
          "name": "x1",
          "type": "uint256"
        },
        {
          "internalType": "uint256",
          "name": "y1",
          "type": "uint256"
        },
        {
          "internalType": "uint256",
          "name": "x2",
          "type": "uint256"
        },
        {
          "internalType": "uint256",
          "name": "y2",
          "type": "uint256"
        }
      ],
      "name": "ellipticAdd",
      "outputs": [
        {
          "internalType": "uint256",
          "name": "",
          "type": "uint256"
        },
        {
          "internalType": "uint256",
          "name": "",
          "type": "uint256"
        }
      ],
      "stateMutability": "nonpayable",
      "type": "function"
    },
    {
      "inputs": [
        {
          "internalType": "uint256",
          "name": "x1",
          "type": "uint256"
        },
        {
          "internalType": "uint256",
          "name": "y1",
          "type": "uint256"
        },
        {
          "internalType": "uint256",
          "name": "x2",
          "type": "uint256"
        },
        {
          "internalType": "uint256",
          "name": "y2",
          "type": "uint256"
        }
      ],
      "name": "ellipticSub",
      "outputs": [
        {
          "internalType": "uint256",
          "name": "",
          "type": "uint256"
        },
        {
          "internalType": "uint256",
          "name": "",
          "type": "uint256"
        }
      ],
      "stateMutability": "nonpayable",
      "type": "function"
    },
    {
      "inputs": [
        {
          "internalType": "uint256",
          "name": "scalar",
          "type": "uint256"
        },
        {
          "internalType": "uint256",
          "name": "x",
          "type": "uint256"
        },
        {
          "internalType": "uint256",
          "name": "y",
          "type": "uint256"
        }
      ],
      "name": "ellipticMul",
      "outputs": [
        {
          "internalType": "uint256",
          "name": "",
          "type": "uint256"
        },
        {
          "internalType": "uint256",
          "name": "",
          "type": "uint256"
        }
      ],
      "stateMutability": "nonpayable",
      "type": "function"
    }
  ],
  "bytecode": "0x60806040527ffffffffffffffffffffffffffffffffffffffffffffffffffffffffefffffc2f5f557ffffffffffffffffffffffffffffffffebaaedce6af48a03bbfd25e8cd03641416001557f79be667ef9dcbbac55a06295ce870b07029bfcdb2dce28d959f2815b16f817986002557f483ada7726a3c4655da4fbfc0e1108a8fd17b448a68554199c47d08ffb10d4b86003555f60045560076005553480156100a7575f80fd5b506115f2806100b55f395ff3fe608060405234801561000f575f80fd5b506004361061011f575f3560e01c80636a893ec7116100ab578063c4371a1c1161006f578063c4371a1c14610372578063caebd4ae146103a3578063d8ebf606146103d5578063e2800b0614610406578063ff0dd5c1146104245761011f565b80636a893ec7146102c95780636eb92ae9146102e75780637aeb2182146103055780637ce5d10314610336578063949d225d146103545761011f565b80633a1fa040116100f25780633a1fa040146101d45780633adfed28146102065780634624baec14610236578063481bedcc146102675780634eb3f29b146102985761011f565b8063195ff714146101235780632037cd4b146101555780632986e0541461018657806337103a67146101a4575b5f80fd5b61013d60048036038101906101389190611035565b610455565b60405161014c939291906110cd565b60405180910390f35b61016f600480360381019061016a9190611102565b610550565b60405161017d929190611152565b60405180910390f35b61018e61057c565b60405161019b9190611179565b60405180910390f35b6101be60048036038101906101b99190611192565b610581565b6040516101cb9190611223565b60405180910390f35b6101ee60048036038101906101e99190611192565b610645565b6040516101fd939291906110cd565b60405180910390f35b610220600480360381019061021b919061123c565b61088d565b60405161022d9190611179565b60405180910390f35b610250600480360381019061024b9190611192565b6109a6565b60405161025e929190611152565b60405180910390f35b610281600480360381019061027c9190611102565b6109f1565b60405161028f929190611152565b60405180910390f35b6102b260048036038101906102ad919061127a565b610a19565b6040516102c0929190611152565b60405180910390f35b6102d1610a43565b6040516102de9190611179565b60405180910390f35b6102ef610a49565b6040516102fc9190611179565b60405180910390f35b61031f600480360381019061031a9190611035565b610a4f565b60405161032d929190611152565b60405180910390f35b61033e610a93565b60405161034b9190611179565b60405180910390f35b61035c610a99565b6040516103699190611179565b60405180910390f35b61038c6004803603810190610387919061127a565b610a9f565b60405161039a929190611152565b60405180910390f35b6103bd60048036038101906103b891906112de565b610b16565b6040516103cc939291906110cd565b60405180910390f35b6103ef60048036038101906103ea9190611035565b610e9e565b6040516103fd929190611152565b60405180910390f35b61040e610f13565b60405161041b9190611179565b60405180910390f35b61043e6004803603810190610439919061127a565b610f19565b60405161044c929190611152565b60405180910390f35b5f805f610460610f43565b86815f0181815250508981604001818152505088816060018181525050878160800181815250505f99505f9850600197505f87036104a8575f80600193509350935050610544565b5b5f815f015114610539575f6001825f015116146104e8576104db8a8a8a8460400151856060015186608001518b610b16565b809a50819b50829c505050505b6002815f01516104f891906113d5565b815f0181815250506105198160400151826060015183608001518989610645565b8360400184606001856080018381525083815250838152505050506104a9565b898989935093509350505b96509650969350505050565b5f808483806105625761056161137b565b5b5f868661056f9190611405565b0891509150935093915050565b5f5481565b5f8086148061058f57508186145b8061059957505f85145b806105a357508185145b156105b0575f905061063c565b5f8083806105c1576105c061137b565b5b878809915083806105d5576105d461137b565b5b8885806105e5576105e461137b565b5b8a8b090990505f86146106185783806106015761060061137b565b5b84806106105761060f61137b565b5b898809820890505b5f851461063457838061062e5761062d61137b565b5b85820890505b808214925050505b95945050505050565b5f805f610650610f6d565b5f805f808a0361066c578b8b8b96509650965050505050610882565b878061067b5761067a61137b565b5b8c8d09845f01818152505087806106955761069461137b565b5b8b8c0984602001818152505087806106b0576106af61137b565b5b88806106bf576106be61137b565b5b8b8c0989806106d1576106d061137b565b5b8c8d090984604001818152505087806106ed576106ec61137b565b5b88806106fc576106fb61137b565b5b85602001518e09600409846080018181525050878061071e5761071d61137b565b5b888061072d5761072c61137b565b5b85604001518b0989806107435761074261137b565b5b865f0151600309088460a001818152505087806107635761076261137b565b5b8460a001518560a00151098460c001818152505087806107865761078561137b565b5b846020015185602001510984606001818152505087806107a9576107a861137b565b5b88806107b8576107b761137b565b5b5f8a806107c8576107c761137b565b5b87608001516002098b6107db9190611405565b088560c0015108925087806107f3576107f261137b565b5b88806108025761080161137b565b5b8560600151600809896108159190611405565b89806108245761082361137b565b5b8a806108335761083261137b565b5b868c61083f9190611405565b8860800151088760a0015109089150878061085d5761085c61137b565b5b888061086c5761086b61137b565b5b8b8d096002099050828282965096509650505050505b955095509592505050565b5f8083148061089d575060018211155b806108a757508183145b156108e7576040517f08c379a00000000000000000000000000000000000000000000000000000000081526004016108de9061152a565b60405180910390fd5b5f80600190505f8590505f8590505f805b5f841461097a57838361090b91906113d5565b915084888061091d5761091c61137b565b5b898061092c5761092b61137b565b5b5f8b8061093c5761093b61137b565b5b8987098c61094a9190611405565b08880880965081975050508384836109629190611548565b8461096d9190611405565b80955081945050506108f8565b5f861061098957859050610997565b87866109959190611589565b505b80965050505050505092915050565b5f805f805f805f6109bc8c8c60018d8d8d610455565b8095508196508297505050506109d48585858b610a9f565b809250819350505081819650965050505050509550959350505050565b5f805f80610a058686896004545f546109a6565b915091508181935093505050935093915050565b5f805f80610a2e888888886004545f54610e9e565b91509150818193509350505094509492505050565b60055481565b60045481565b5f805f805f80610a608a8a89610550565b8092508193505050610a768c8c84848c8c610e9e565b809450819550505083839550955050505050965096945050505050565b60035481565b60015481565b5f805f805f805f610ab0898961088d565b94508780610ac157610ac061137b565b5b85860993508780610ad557610ad461137b565b5b84860992508780610ae957610ae861137b565b5b848c0991508780610afd57610afc61137b565b5b838b099050818196509650505050505094509492505050565b5f805f610b21610fa3565b5f805f808e148015610b3257505f8d145b15610b49578a8a8a96509650965050505050610e91565b5f8b148015610b5757505f8a145b15610b6e578d8d8d96509650965050505050610e91565b8780610b7d57610b7c61137b565b5b8c8d09845f0181815250508780610b9757610b9661137b565b5b898a098460200181815250508780610bb257610bb161137b565b5b845f01518d098460400181815250508780610bd057610bcf61137b565b5b84602001518a098460600181815250508780610bef57610bee61137b565b5b84602001518f098460800181815250508780610c0e57610c0d61137b565b5b845f01518c098460a00181815250508780610c2c57610c2b61137b565b5b84606001518e098460c00181815250508780610c4b57610c4a61137b565b5b84604001518b098460e00181815250508780610c6a57610c6961137b565b5b8880610c7957610c7861137b565b5b5f86608001518b610c8a9190611405565b088560a0015108846101000181815250508780610caa57610ca961137b565b5b8880610cb957610cb861137b565b5b5f8660c001518b610cca9190611405565b088560e0015108846101200181815250508780610cea57610ce961137b565b5b84610120015185610120015109846101400181815250508780610d1057610d0f61137b565b5b84610100015185610100015109846101600181815250508780610d3657610d3561137b565b5b8880610d4557610d4461137b565b5b8561010001518661010001510985610100015109846101800181815250508780610d7257610d7161137b565b5b8880610d8157610d8061137b565b5b8980610d9057610d8f61137b565b5b86610160015187608001510960020989610daa9190611405565b8980610db957610db861137b565b5b8661018001518b610dca9190611405565b876101400151080892508780610de357610de261137b565b5b8880610df257610df161137b565b5b8561018001518660c001510989610e099190611405565b8980610e1857610e1761137b565b5b8a80610e2757610e2661137b565b5b868c610e339190611405565b8c80610e4257610e4161137b565b5b8961016001518a608001510908876101200151090891508780610e6857610e6761137b565b5b898980610e7857610e7761137b565b5b8e87610100015109099050828282965096509650505050505b9750975097945050505050565b5f805f805f805f8a8d03610ecb57610eba8d8d60018c8c610645565b809350819450829550505050610ee9565b610edc8d8d60018e8e60018e610b16565b8093508194508295505050505b610ef58383838b610a9f565b80955081965050508484965096505050505050965096945050505050565b60025481565b5f805f80610f2e888888886004545f54610a4f565b91509150818193509350505094509492505050565b6040518060a001604052805f81526020015f81526020015f81526020015f81526020015f81525090565b6040518060e001604052805f81526020015f81526020015f81526020015f81526020015f81526020015f81526020015f81525090565b604051806101a001604052805f81526020015f81526020015f81526020015f81526020015f81526020015f81526020015f81526020015f81526020015f81526020015f81526020015f81526020015f81526020015f81525090565b5f80fd5b5f819050919050565b61101481611002565b811461101e575f80fd5b50565b5f8135905061102f8161100b565b92915050565b5f805f805f8060c0878903121561104f5761104e610ffe565b5b5f61105c89828a01611021565b965050602061106d89828a01611021565b955050604061107e89828a01611021565b945050606061108f89828a01611021565b93505060806110a089828a01611021565b92505060a06110b189828a01611021565b9150509295509295509295565b6110c781611002565b82525050565b5f6060820190506110e05f8301866110be565b6110ed60208301856110be565b6110fa60408301846110be565b949350505050565b5f805f6060848603121561111957611118610ffe565b5b5f61112686828701611021565b935050602061113786828701611021565b925050604061114886828701611021565b9150509250925092565b5f6040820190506111655f8301856110be565b61117260208301846110be565b9392505050565b5f60208201905061118c5f8301846110be565b92915050565b5f805f805f60a086880312156111ab576111aa610ffe565b5b5f6111b888828901611021565b95505060206111c988828901611021565b94505060406111da88828901611021565b93505060606111eb88828901611021565b92505060806111fc88828901611021565b9150509295509295909350565b5f8115159050919050565b61121d81611209565b82525050565b5f6020820190506112365f830184611214565b92915050565b5f806040838503121561125257611251610ffe565b5b5f61125f85828601611021565b925050602061127085828601611021565b9150509250929050565b5f805f806080858703121561129257611291610ffe565b5b5f61129f87828801611021565b94505060206112b087828801611021565b93505060406112c187828801611021565b92505060606112d287828801611021565b91505092959194509250565b5f805f805f805f60e0888a0312156112f9576112f8610ffe565b5b5f6113068a828b01611021565b97505060206113178a828b01611021565b96505060406113288a828b01611021565b95505060606113398a828b01611021565b945050608061134a8a828b01611021565b93505060a061135b8a828b01611021565b92505060c061136c8a828b01611021565b91505092959891949750929550565b7f4e487b71000000000000000000000000000000000000000000000000000000005f52601260045260245ffd5b7f4e487b71000000000000000000000000000000000000000000000000000000005f52601160045260245ffd5b5f6113df82611002565b91506113ea83611002565b9250826113fa576113f961137b565b5b828204905092915050565b5f61140f82611002565b915061141a83611002565b9250828203905081811115611432576114316113a8565b5b92915050565b5f82825260208201905092915050565b7f4e756d6265727320617265206e6f742076616c696420666f72206f6e65206f665f8201527f2074686520666f6c6c6f77696e6720726561736f6e733a20312e2056616c756560208201527f20746f20626520696e766572746564206973207a65726f2e0a4d6f64756c757360408201527f206973203c3d20312e0a56616c756520616e64206d6f64756c7573206861766560608201527f2061726520657175616c2e000000000000000000000000000000000000000000608082015250565b5f611514608b83611438565b915061151f82611448565b60a082019050919050565b5f6020820190508181035f83015261154181611508565b9050919050565b5f61155282611002565b915061155d83611002565b925082820261156b81611002565b91508282048414831517611582576115816113a8565b5b5092915050565b5f61159382611002565b915061159e83611002565b92508282019050808211156115b6576115b56113a8565b5b9291505056fea2646970667358221220556ca7f3e96bf8d87b96d0e719ff1093ec05448ba6ccef54b28b682258e17d7364736f6c63430008150033",
  "immutableReferences": {},
  "source": "// SPDX-License-Identifier: MIT\n\npragma solidity ^0.8.21;\n\nimport \"./EllipticCurveOperations.sol\";\n\ncontract EllipticCurve is EllipticCurveOperations {\n    uint256 public mod =\n        uint256(\n            0xFFFFFFFFFFFFFFFFFFFFFFFFFFFFFFFFFFFFFFFFFFFFFFFFFFFFFFFEFFFFFC2F\n        );\n    uint256 public size =\n        uint256(\n            0xFFFFFFFFFFFFFFFFFFFFFFFFFFFFFFFEBAAEDCE6AF48A03BBFD25E8CD0364141\n        ); // curve's order\n    uint256 public generatorX =\n        uint256(\n            0x79BE667EF9DCBBAC55A06295CE870B07029BFCDB2DCE28D959F2815B16F81798\n        ); // x coordinate of a point\n    uint256 public generatorY =\n        uint256(\n            0x483ADA7726A3C4655DA4FBFC0E1108A8FD17B448A68554199C47D08FFB10D4B8\n        ); // y coordinate of a point\n    uint256 public curveConst =\n        uint256(\n            0x0000000000000000000000000000000000000000000000000000000000000000\n        );\n    uint256 public curveConstB =\n        uint256(\n            0x0000000000000000000000000000000000000000000000000000000000000007\n        );\n\n    function ellipticAdd(\n        uint256 x1,\n        uint256 y1,\n        uint256 x2,\n        uint256 y2\n    ) public returns (uint256, uint256) {\n        (uint256 x, uint256 y) = affineAddition(\n            x1,\n            y1,\n            x2,\n            y2,\n            curveConst,\n            mod\n        );\n        return (x, y);\n    }\n\n    function ellipticSub(\n        uint256 x1,\n        uint256 y1,\n        uint256 x2,\n        uint256 y2\n    ) public returns (uint256, uint256) {\n        (uint256 x, uint256 y) = affineSub(x1, y1, x2, y2, curveConst, mod);\n        return (x, y);\n    }\n\n    function ellipticMul(\n        uint256 scalar,\n        uint256 x,\n        uint256 y\n    ) public returns (uint256, uint256) {\n        (uint256 x, uint256 y) = affineMul(x, y, scalar, curveConst, mod);\n        return (x, y);\n    }\n}\n",
  "sourcePath": "/Users/nico/nycode/PROJECTS/ZKBlockMature/backend/contracts/EllipticCurve.sol",
  "compiler": {
    "name": "solc",
    "version": "0.8.21+commit.d9974bed.Emscripten.clang"
  },
  "schemaVersion": "3.4.16",
  "updatedAt": "2024-09-11T18:18:38.449Z",
  "devdoc": {
    "kind": "dev",
    "methods": {},
    "version": 1
  },
  "userdoc": {
    "kind": "user",
    "methods": {},
    "version": 1
  }
}