{
  "contractName": "ZKBlockMature",
  "abi": [
    {
      "inputs": [
        {
          "internalType": "address",
          "name": "_ageVerifierAddress",
          "type": "address"
        }
      ],
      "stateMutability": "nonpayable",
      "type": "constructor"
    },
    {
      "anonymous": false,
      "inputs": [
        {
          "indexed": false,
          "internalType": "bool",
          "name": "result",
          "type": "bool"
        }
      ],
      "name": "ProofVerification",
      "type": "event"
    },
    {
      "inputs": [],
      "name": "ageVerifierAddress",
      "outputs": [
        {
          "internalType": "address",
          "name": "",
          "type": "address"
        }
      ],
      "stateMutability": "view",
      "type": "function",
      "constant": true
    },
    {
      "inputs": [
        {
          "internalType": "bytes",
          "name": "proof",
          "type": "bytes"
        },
        {
          "internalType": "uint256[]",
          "name": "pubSignals",
          "type": "uint256[]"
        }
      ],
      "name": "verifyProof",
      "outputs": [],
      "stateMutability": "nonpayable",
      "type": "function"
    },
    {
      "inputs": [
        {
          "internalType": "uint256[2]",
          "name": "_pA",
          "type": "uint256[2]"
        },
        {
          "internalType": "uint256[2][2]",
          "name": "_pB",
          "type": "uint256[2][2]"
        },
        {
          "internalType": "uint256[2]",
          "name": "_pC",
          "type": "uint256[2]"
        },
        {
          "internalType": "uint256[1]",
          "name": "_pubSignals",
          "type": "uint256[1]"
        }
      ],
      "name": "verifyProof",
      "outputs": [
        {
          "internalType": "bool",
          "name": "",
          "type": "bool"
        }
      ],
      "stateMutability": "view",
      "type": "function",
      "constant": true
    }
  ],
  "bytecode": "0x608060405234801561000f575f80fd5b50604051610d0c380380610d0c833981810160405281019061003191906100d4565b805f806101000a81548173ffffffffffffffffffffffffffffffffffffffff021916908373ffffffffffffffffffffffffffffffffffffffff160217905550506100ff565b5f80fd5b5f73ffffffffffffffffffffffffffffffffffffffff82169050919050565b5f6100a38261007a565b9050919050565b6100b381610099565b81146100bd575f80fd5b50565b5f815190506100ce816100aa565b92915050565b5f602082840312156100e9576100e8610076565b5b5f6100f6848285016100c0565b91505092915050565b610c008061010c5f395ff3fe608060405234801561000f575f80fd5b506004361061003f575f3560e01c80630eb5aa34146100435780631e8e1e131461006157806343753b4d1461007d575b5f80fd5b61004b6100ad565b6040516100589190610640565b60405180910390f35b61007b6004803603810190610076919061089d565b6100d0565b005b61009760048036038101906100929190610976565b6101a9565b6040516100a491906109f6565b60405180910390f35b5f8054906101000a900473ffffffffffffffffffffffffffffffffffffffff1681565b5f805f9054906101000a900473ffffffffffffffffffffffffffffffffffffffff1673ffffffffffffffffffffffffffffffffffffffff16631e8e1e1384846040518363ffffffff1660e01b815260040161012c929190610b40565b602060405180830381865afa158015610147573d5f803e3d5ffd5b505050506040513d601f19601f8201168201806040525081019061016b9190610b9f565b90507f227f6190073ec97cb8fabdc4a7b246017b82789a212ebc5a1ec4ddf1e2d379908160405161019c91906109f6565b60405180910390a1505050565b5f6105c8565b7f30644e72e131a029b85045b68181585d2833e84879b9709143e1f593f000000181106101de575f805260205ff35b50565b5f60405183815284602082015285604082015260408160608360076107d05a03fa915081610211575f805260205ff35b825160408201526020830151606082015260408360808360066107d05a03fa91508161023f575f805260205ff35b505050505050565b5f608086015f87017e6df4de615b41103685d8d3f5ca51d4c3293d97f91ec80a52871b862190812781527f1748888470ca43c950ff4ae1d1d6555afaf55a30f1dcd28f44c941a0f50e420160208201526102e65f8801357f17b7c6e34a3e04267e91739b5d194c68a389d31f5a3ab7276d434a65adc420117f2246166c3770e0940bc9f48f85feb4878e92c5639915589155a4c8179b71694a846101e1565b833582527f30644e72e131a029b85045b68181585d97816a916871ca8d3c208c16d87cfd4760208501357f30644e72e131a029b85045b68181585d97816a916871ca8d3c208c16d87cfd4703066020830152843560408301526020850135606083015260408501356080830152606085013560a08301527f0facb3b769c8a7ada9c3f685e356c0fc9bd2c9a3c490bfe4166643ee99107abf60c08301527f20d6b305c4f428af28bf2e29fc7839508762eaf00542423f7ee65b111d54342460e08301527f2a011a6d217a77f0075d7f670a0ebc7d81cbd732629f92871ce3fd387a2815546101008301527f0a3f0e6ab323231a881bf13bb42d05ee08b69a5efb53e614fcbe765070b8cc0f6101208301527f0a8c8a398d00f75600641d1bc1892b365c88c61d59b782e706dd19d0d4e4210a6101408301527f1d088688712f7485b8cc3175dad9827a8242b5033d542ce01cf01275ab90589a6101608301525f88015161018083015260205f018801516101a08301527f198e9393920d483a7260bfb731fb5d25f1aa493335a9e71297e485b7aef312c26101c08301527f1800deef121f1e76426a00665e5c4479674322d4f75edadd46debd5cd992f6ed6101e08301527f090689d0585ff075ec9e99ad690c3395bc4b313370b38ef355acdadcd122975b6102008301527f12c85ea5db8c6deb4aab71808dcb408fe3d1e7690c43d37b4ce6cc0166fa7daa610220830152853561024083015260208601356102608301527f075d6fcd40785d9825a68aeb64e335b3c159f1fa92aa0d091d4e79b473821d996102808301527f07e877fe251a6a341bb0411185b5550a37799d3c89198b9964cc2f6c3c8052146102a08301527f03427b63d1dfaa3bd6b91375b99cde5c91f4e5dd16d79c7a67698417e45fedad6102c08301527f112941216253e2b868037e5be7aef37894458b9dccfdfce6640e43b8e5b21e7f6102e08301526020826103008460086107d05a03fa82518116935050505095945050505050565b60405161038081016040526105df5f8401356101af565b6105ec60208401356101af565b6105f9818486888a610247565b805f5260205ff35b5f73ffffffffffffffffffffffffffffffffffffffff82169050919050565b5f61062a82610601565b9050919050565b61063a81610620565b82525050565b5f6020820190506106535f830184610631565b92915050565b5f604051905090565b5f80fd5b5f80fd5b5f80fd5b5f80fd5b5f601f19601f8301169050919050565b7f4e487b71000000000000000000000000000000000000000000000000000000005f52604160045260245ffd5b6106b882610672565b810181811067ffffffffffffffff821117156106d7576106d6610682565b5b80604052505050565b5f6106e9610659565b90506106f582826106af565b919050565b5f67ffffffffffffffff82111561071457610713610682565b5b61071d82610672565b9050602081019050919050565b828183375f83830152505050565b5f61074a610745846106fa565b6106e0565b9050828152602081018484840111156107665761076561066e565b5b61077184828561072a565b509392505050565b5f82601f83011261078d5761078c61066a565b5b813561079d848260208601610738565b91505092915050565b5f67ffffffffffffffff8211156107c0576107bf610682565b5b602082029050602081019050919050565b5f80fd5b5f819050919050565b6107e7816107d5565b81146107f1575f80fd5b50565b5f81359050610802816107de565b92915050565b5f61081a610815846107a6565b6106e0565b9050808382526020820190506020840283018581111561083d5761083c6107d1565b5b835b81811015610866578061085288826107f4565b84526020840193505060208101905061083f565b5050509392505050565b5f82601f8301126108845761088361066a565b5b8135610894848260208601610808565b91505092915050565b5f80604083850312156108b3576108b2610662565b5b5f83013567ffffffffffffffff8111156108d0576108cf610666565b5b6108dc85828601610779565b925050602083013567ffffffffffffffff8111156108fd576108fc610666565b5b61090985828601610870565b9150509250929050565b5f8190508260206002028201111561092e5761092d6107d1565b5b92915050565b5f8190508260406002028201111561094f5761094e6107d1565b5b92915050565b5f819050826020600102820111156109705761096f6107d1565b5b92915050565b5f805f80610120858703121561098f5761098e610662565b5b5f61099c87828801610913565b94505060406109ad87828801610934565b93505060c06109be87828801610913565b9250506101006109d087828801610955565b91505092959194509250565b5f8115159050919050565b6109f0816109dc565b82525050565b5f602082019050610a095f8301846109e7565b92915050565b5f81519050919050565b5f82825260208201905092915050565b5f5b83811015610a46578082015181840152602081019050610a2b565b5f8484015250505050565b5f610a5b82610a0f565b610a658185610a19565b9350610a75818560208601610a29565b610a7e81610672565b840191505092915050565b5f81519050919050565b5f82825260208201905092915050565b5f819050602082019050919050565b610abb816107d5565b82525050565b5f610acc8383610ab2565b60208301905092915050565b5f602082019050919050565b5f610aee82610a89565b610af88185610a93565b9350610b0383610aa3565b805f5b83811015610b33578151610b1a8882610ac1565b9750610b2583610ad8565b925050600181019050610b06565b5085935050505092915050565b5f6040820190508181035f830152610b588185610a51565b90508181036020830152610b6c8184610ae4565b90509392505050565b610b7e816109dc565b8114610b88575f80fd5b50565b5f81519050610b9981610b75565b92915050565b5f60208284031215610bb457610bb3610662565b5b5f610bc184828501610b8b565b9150509291505056fea26469706673582212204c50515ce0d3b12543a9fca2eee92f34ce2980fd3b8f87f0077fceffa51f298464736f6c63430008150033",
  "immutableReferences": {},
  "source": "// SPDX-License-Identifier: GPL-3.0\npragma solidity ^0.8.21;\n\nimport \"./Verifier.sol\";\n\ninterface AgeVerifier {\n        function verifyProof(bytes memory proof, uint[] memory pubSignals) external view returns (bool);\n    }\n    \ncontract ZKBlockMature is Groth16Verifier{\n\n    address public ageVerifierAddress;\n    // event proved(address indexed _from, uint output, bool proved);\n    event ProofVerification(bool result);\n\n    constructor(address _ageVerifierAddress) {\n        ageVerifierAddress = _ageVerifierAddress;\n    }\n\n    function verifyProof(bytes memory proof, uint[] memory pubSignals) public {\n        bool result = AgeVerifier(ageVerifierAddress).verifyProof(proof, pubSignals);\n        emit ProofVerification(result);\n    }\n}",
  "sourcePath": "/Users/nico/nycode/PROJECTS/ZKBlockMature/backend/contracts/ZKBlockMature.sol",
  "compiler": {
    "name": "solc",
    "version": "0.8.21+commit.d9974bed.Emscripten.clang"
  },
  "schemaVersion": "3.4.16",
  "updatedAt": "2024-07-27T17:32:12.421Z",
  "networkType": "ethereum",
  "devdoc": {
    "kind": "dev",
    "methods": {},
    "version": 1
  },
  "userdoc": {
    "kind": "user",
    "methods": {},
    "version": 1
  }
}