{
  "contractName": "ZKBlockMature",
  "abi": [
    {
      "inputs": [
        {
          "internalType": "address",
          "name": "grothVerifierAddress",
          "type": "address"
        }
      ],
      "stateMutability": "nonpayable",
      "type": "constructor"
    },
    {
      "anonymous": false,
      "inputs": [
        {
          "indexed": false,
          "internalType": "bool",
          "name": "result",
          "type": "bool"
        }
      ],
      "name": "ProofVerification",
      "type": "event"
    },
    {
      "inputs": [],
      "name": "s_grothVerifierAddress",
      "outputs": [
        {
          "internalType": "address",
          "name": "",
          "type": "address"
        }
      ],
      "stateMutability": "view",
      "type": "function",
      "constant": true
    },
    {
      "inputs": [
        {
          "internalType": "uint256[2]",
          "name": "_pA",
          "type": "uint256[2]"
        },
        {
          "internalType": "uint256[2][2]",
          "name": "_pB",
          "type": "uint256[2][2]"
        },
        {
          "internalType": "uint256[2]",
          "name": "_pC",
          "type": "uint256[2]"
        },
        {
          "internalType": "uint256[1]",
          "name": "_pubSignals",
          "type": "uint256[1]"
        }
      ],
      "name": "submitProof",
      "outputs": [
        {
          "internalType": "bool",
          "name": "",
          "type": "bool"
        }
      ],
      "stateMutability": "nonpayable",
      "type": "function"
    }
  ],
  "bytecode": "0x608060405234801561000f575f80fd5b50604051610a07380380610a07833981810160405281019061003191906100d4565b805f806101000a81548173ffffffffffffffffffffffffffffffffffffffff021916908373ffffffffffffffffffffffffffffffffffffffff160217905550506100ff565b5f80fd5b5f73ffffffffffffffffffffffffffffffffffffffff82169050919050565b5f6100a38261007a565b9050919050565b6100b381610099565b81146100bd575f80fd5b50565b5f815190506100ce816100aa565b92915050565b5f602082840312156100e9576100e8610076565b5b5f6100f6848285016100c0565b91505092915050565b6108fb8061010c5f395ff3fe608060405234801561000f575f80fd5b5060043610610034575f3560e01c8063baf07b5214610038578063d7a6401b14610056575b5f80fd5b610040610086565b60405161004d919061020d565b60405180910390f35b610070600480360381019061006b9190610500565b6100a9565b60405161007d9190610580565b60405180910390f35b5f8054906101000a900473ffffffffffffffffffffffffffffffffffffffff1681565b5f805f8054906101000a900473ffffffffffffffffffffffffffffffffffffffff1673ffffffffffffffffffffffffffffffffffffffff166343753b4d878787876040518563ffffffff1660e01b815260040161010994939291906107b3565b602060405180830381865afa158015610124573d5f803e3d5ffd5b505050506040513d601f19601f820116820180604052508101906101489190610822565b90507f227f6190073ec97cb8fabdc4a7b246017b82789a212ebc5a1ec4ddf1e2d37990816040516101799190610580565b60405180910390a1806101c1576040517f08c379a00000000000000000000000000000000000000000000000000000000081526004016101b8906108a7565b60405180910390fd5b6001915050949350505050565b5f73ffffffffffffffffffffffffffffffffffffffff82169050919050565b5f6101f7826101ce565b9050919050565b610207816101ed565b82525050565b5f6020820190506102205f8301846101fe565b92915050565b5f604051905090565b5f80fd5b5f80fd5b5f601f19601f8301169050919050565b7f4e487b71000000000000000000000000000000000000000000000000000000005f52604160045260245ffd5b61027d82610237565b810181811067ffffffffffffffff8211171561029c5761029b610247565b5b80604052505050565b5f6102ae610226565b90506102ba8282610274565b919050565b5f67ffffffffffffffff8211156102d9576102d8610247565b5b602082029050919050565b5f80fd5b5f819050919050565b6102fa816102e8565b8114610304575f80fd5b50565b5f81359050610315816102f1565b92915050565b5f61032d610328846102bf565b6102a5565b90508060208402830185811115610347576103466102e4565b5b835b81811015610370578061035c8882610307565b845260208401935050602081019050610349565b5050509392505050565b5f82601f83011261038e5761038d610233565b5b600261039b84828561031b565b91505092915050565b5f67ffffffffffffffff8211156103be576103bd610247565b5b602082029050919050565b5f6103db6103d6846103a4565b6102a5565b905080604084028301858111156103f5576103f46102e4565b5b835b8181101561041e578061040a888261037a565b8452602084019350506040810190506103f7565b5050509392505050565b5f82601f83011261043c5761043b610233565b5b60026104498482856103c9565b91505092915050565b5f67ffffffffffffffff82111561046c5761046b610247565b5b602082029050919050565b5f61048961048484610452565b6102a5565b905080602084028301858111156104a3576104a26102e4565b5b835b818110156104cc57806104b88882610307565b8452602084019350506020810190506104a5565b5050509392505050565b5f82601f8301126104ea576104e9610233565b5b60016104f7848285610477565b91505092915050565b5f805f8061012085870312156105195761051861022f565b5b5f6105268782880161037a565b945050604061053787828801610428565b93505060c06105488782880161037a565b92505061010061055a878288016104d6565b91505092959194509250565b5f8115159050919050565b61057a81610566565b82525050565b5f6020820190506105935f830184610571565b92915050565b5f60029050919050565b5f81905092915050565b5f819050919050565b6105bf816102e8565b82525050565b5f6105d083836105b6565b60208301905092915050565b5f602082019050919050565b6105f181610599565b6105fb81846105a3565b9250610606826105ad565b805f5b8381101561063657815161061d87826105c5565b9650610628836105dc565b925050600181019050610609565b505050505050565b5f60029050919050565b5f81905092915050565b5f819050919050565b5f81905092915050565b61066e81610599565b610678818461065b565b9250610683826105ad565b805f5b838110156106b357815161069a87826105c5565b96506106a5836105dc565b925050600181019050610686565b505050505050565b5f6106c68383610665565b60408301905092915050565b5f602082019050919050565b6106e78161063e565b6106f18184610648565b92506106fc82610652565b805f5b8381101561072c57815161071387826106bb565b965061071e836106d2565b9250506001810190506106ff565b505050505050565b5f60019050919050565b5f81905092915050565b5f819050919050565b5f602082019050919050565b61076681610734565b610770818461073e565b925061077b82610748565b805f5b838110156107ab57815161079287826105c5565b965061079d83610751565b92505060018101905061077e565b505050505050565b5f610120820190506107c75f8301876105e8565b6107d460408301866106de565b6107e160c08301856105e8565b6107ef61010083018461075d565b95945050505050565b61080181610566565b811461080b575f80fd5b50565b5f8151905061081c816107f8565b92915050565b5f602082840312156108375761083661022f565b5b5f6108448482850161080e565b91505092915050565b5f82825260208201905092915050565b7f496e76616c69642050726f6f66000000000000000000000000000000000000005f82015250565b5f610891600d8361084d565b915061089c8261085d565b602082019050919050565b5f6020820190508181035f8301526108be81610885565b905091905056fea2646970667358221220bf27ce4f3439dff6fa2461d2a1c4469d4dc28b4c8a2d589aad4c1c0b4055e91064736f6c63430008150033",
  "immutableReferences": {},
  "source": "\n\n// // SPDX-License-Identifier: GPL-3.0\n// pragma solidity ^0.8.21;\n\n// import \"./Groth16Verifier.sol\";\n// import \"../node_modules/hardhat/console.sol\";\n\n// contract ZKBlockMature {\n\n//     Groth16Verifier public groth16Verifier;\n\n//     event ProofVerification(bool result);\n//     event DebugLog(string message, bool value); \n\n//     constructor(address _groth16VerifierAddress) {\n//         groth16Verifier = Groth16Verifier(_groth16VerifierAddress);\n//     }\n\n//     function verifyProof(\n//         uint[2] memory _pA, \n//         uint[2][2] memory _pB, \n//         uint[2] memory _pC, \n//         uint[1] memory _pubSignals\n//     ) public {\n//         emit DebugLog(\"Before calling verifier\", false);\n//         bool result = groth16Verifier.verifyProof(_pA, _pB, _pC, _pubSignals);\n//         emit DebugLog(\"After calling verifier\", result); // Emit event with result\n//         emit ProofVerification(result);\n//     }\n// }\n\n\npragma solidity ^0.8.21;\n\n// import \"./Groth16Verifier.sol\";\nimport \"./AgeVerifier.sol\";\nimport \"../node_modules/hardhat/console.sol\";\n\ninterface IGroth16Verifier {\n    function verifyProof(\n        uint[2] memory _pA, \n        uint[2][2] memory _pB, \n        uint[2] memory _pC, \n        uint[1] memory _pubSignals\n    ) external view returns (bool);\n}\n\n\ncontract ZKBlockMature {\n\n    address public s_grothVerifierAddress;\n\n    event ProofVerification(bool result);\n\n    constructor(address grothVerifierAddress) {\n        s_grothVerifierAddress = grothVerifierAddress;\n    }\n\n    function submitProof(uint[2] memory _pA, \n        uint[2][2] memory _pB, \n        uint[2] memory _pC, \n        uint[1] memory _pubSignals) public  returns (bool) {\n        bool result = IGroth16Verifier(s_grothVerifierAddress).verifyProof(_pA, _pB, _pC, _pubSignals);\n        emit ProofVerification(result);\n        require(result, \"Invalid Proof\");\n        return true;\n    }\n}\n",
  "sourcePath": "/Users/nico/nycode/PROJECTS/ZKBlockMature/backend/contracts/ZKBlockMature.sol",
  "compiler": {
    "name": "solc",
    "version": "0.8.21+commit.d9974bed.Emscripten.clang"
  },
  "schemaVersion": "3.4.16",
  "updatedAt": "2024-09-08T14:54:03.089Z",
  "networkType": "ethereum",
  "devdoc": {
    "kind": "dev",
    "methods": {},
    "version": 1
  },
  "userdoc": {
    "kind": "user",
    "methods": {},
    "version": 1
  }
}