{
  "contractName": "ZKBlockMature",
  "abi": [
    {
      "inputs": [],
      "stateMutability": "nonpayable",
      "type": "constructor"
    },
    {
      "inputs": [
        {
          "internalType": "address",
          "name": "owner",
          "type": "address"
        }
      ],
      "name": "OwnableInvalidOwner",
      "type": "error"
    },
    {
      "inputs": [
        {
          "internalType": "address",
          "name": "account",
          "type": "address"
        }
      ],
      "name": "OwnableUnauthorizedAccount",
      "type": "error"
    },
    {
      "anonymous": false,
      "inputs": [
        {
          "indexed": true,
          "internalType": "address",
          "name": "user",
          "type": "address"
        },
        {
          "indexed": false,
          "internalType": "bool",
          "name": "isEligible",
          "type": "bool"
        }
      ],
      "name": "AgeVerified",
      "type": "event"
    },
    {
      "anonymous": false,
      "inputs": [
        {
          "indexed": true,
          "internalType": "address",
          "name": "previousOwner",
          "type": "address"
        },
        {
          "indexed": true,
          "internalType": "address",
          "name": "newOwner",
          "type": "address"
        }
      ],
      "name": "OwnershipTransferred",
      "type": "event"
    },
    {
      "inputs": [
        {
          "internalType": "address",
          "name": "",
          "type": "address"
        }
      ],
      "name": "commitments",
      "outputs": [
        {
          "internalType": "bytes32",
          "name": "commitment",
          "type": "bytes32"
        },
        {
          "internalType": "bytes",
          "name": "proof",
          "type": "bytes"
        }
      ],
      "stateMutability": "view",
      "type": "function",
      "constant": true
    },
    {
      "inputs": [],
      "name": "owner",
      "outputs": [
        {
          "internalType": "address",
          "name": "",
          "type": "address"
        }
      ],
      "stateMutability": "view",
      "type": "function",
      "constant": true
    },
    {
      "inputs": [],
      "name": "renounceOwnership",
      "outputs": [],
      "stateMutability": "nonpayable",
      "type": "function"
    },
    {
      "inputs": [
        {
          "internalType": "address",
          "name": "newOwner",
          "type": "address"
        }
      ],
      "name": "transferOwnership",
      "outputs": [],
      "stateMutability": "nonpayable",
      "type": "function"
    },
    {
      "inputs": [
        {
          "internalType": "bytes32",
          "name": "_commitment",
          "type": "bytes32"
        },
        {
          "internalType": "bytes",
          "name": "_proof",
          "type": "bytes"
        }
      ],
      "name": "addCommitment",
      "outputs": [],
      "stateMutability": "nonpayable",
      "type": "function"
    },
    {
      "inputs": [
        {
          "internalType": "bytes32",
          "name": "_commitment",
          "type": "bytes32"
        },
        {
          "internalType": "bytes",
          "name": "_proof",
          "type": "bytes"
        }
      ],
      "name": "verifyAge",
      "outputs": [
        {
          "internalType": "bool",
          "name": "",
          "type": "bool"
        }
      ],
      "stateMutability": "view",
      "type": "function",
      "constant": true
    },
    {
      "inputs": [
        {
          "internalType": "bytes32",
          "name": "_commitment",
          "type": "bytes32"
        },
        {
          "internalType": "bytes",
          "name": "_proof",
          "type": "bytes"
        }
      ],
      "name": "performAgeVerification",
      "outputs": [],
      "stateMutability": "nonpayable",
      "type": "function"
    }
  ],
  "bytecode": "0x608060405234801561000f575f80fd5b50335f73ffffffffffffffffffffffffffffffffffffffff168173ffffffffffffffffffffffffffffffffffffffff1603610081575f6040517f1e4fbdf700000000000000000000000000000000000000000000000000000000815260040161007891906101d6565b60405180910390fd5b610090816100d660201b60201c565b503360015f6101000a81548173ffffffffffffffffffffffffffffffffffffffff021916908373ffffffffffffffffffffffffffffffffffffffff1602179055506101ef565b5f805f9054906101000a900473ffffffffffffffffffffffffffffffffffffffff169050815f806101000a81548173ffffffffffffffffffffffffffffffffffffffff021916908373ffffffffffffffffffffffffffffffffffffffff1602179055508173ffffffffffffffffffffffffffffffffffffffff168173ffffffffffffffffffffffffffffffffffffffff167f8be0079c531659141344cd1fd0a4f28419497f9722a3daafe3b4186f6b6457e060405160405180910390a35050565b5f73ffffffffffffffffffffffffffffffffffffffff82169050919050565b5f6101c082610197565b9050919050565b6101d0816101b6565b82525050565b5f6020820190506101e95f8301846101c7565b92915050565b610e70806101fc5f395ff3fe608060405234801561000f575f80fd5b506004361061007b575f3560e01c8063bcd6792a11610059578063bcd6792a146100d7578063e1bffef9146100f3578063e8fcf7231461010f578063f2fde38b146101405761007b565b8063715018a61461007f57806379edfd26146100895780638da5cb5b146100b9575b5f80fd5b61008761015c565b005b6100a3600480360381019061009e919061082f565b61016f565b6040516100b091906108a3565b60405180910390f35b6100c16102f8565b6040516100ce91906108fb565b60405180910390f35b6100f160048036038101906100ec919061082f565b61031f565b005b61010d6004803603810190610108919061082f565b610396565b005b6101296004803603810190610124919061093e565b610436565b6040516101379291906109f2565b60405180910390f35b61015a6004803603810190610155919061093e565b6104dc565b005b610164610560565b61016d5f6105e7565b565b5f8060025f3373ffffffffffffffffffffffffffffffffffffffff1673ffffffffffffffffffffffffffffffffffffffff1681526020019081526020015f206040518060400160405290815f82015481526020016001820180546101d290610a4d565b80601f01602080910402602001604051908101604052809291908181526020018280546101fe90610a4d565b80156102495780601f1061022057610100808354040283529160200191610249565b820191905f5260205f20905b81548152906001019060200180831161022c57829003601f168201915b505050505081525050905083815f015114610299576040517f08c379a000000000000000000000000000000000000000000000000000000000815260040161029090610ad7565b60405180910390fd5b8280519060200120816020015180519060200120146102ed576040517f08c379a00000000000000000000000000000000000000000000000000000000081526004016102e490610b3f565b60405180910390fd5b600191505092915050565b5f805f9054906101000a900473ffffffffffffffffffffffffffffffffffffffff16905090565b60405180604001604052808381526020018281525060025f3373ffffffffffffffffffffffffffffffffffffffff1673ffffffffffffffffffffffffffffffffffffffff1681526020019081526020015f205f820151815f0155602082015181600101908161038e9190610d03565b509050505050565b5f6103a1838361016f565b9050806103e3576040517f08c379a00000000000000000000000000000000000000000000000000000000081526004016103da90610e1c565b60405180910390fd5b3373ffffffffffffffffffffffffffffffffffffffff167f0f977ef4f521adaafc44cfe1987be6b429382a949911bb7ee02246ffcd87bf948260405161042991906108a3565b60405180910390a2505050565b6002602052805f5260405f205f91509050805f01549080600101805461045b90610a4d565b80601f016020809104026020016040519081016040528092919081815260200182805461048790610a4d565b80156104d25780601f106104a9576101008083540402835291602001916104d2565b820191905f5260205f20905b8154815290600101906020018083116104b557829003601f168201915b5050505050905082565b6104e4610560565b5f73ffffffffffffffffffffffffffffffffffffffff168173ffffffffffffffffffffffffffffffffffffffff1603610554575f6040517f1e4fbdf700000000000000000000000000000000000000000000000000000000815260040161054b91906108fb565b60405180910390fd5b61055d816105e7565b50565b6105686106a8565b73ffffffffffffffffffffffffffffffffffffffff166105866102f8565b73ffffffffffffffffffffffffffffffffffffffff16146105e5576105a96106a8565b6040517f118cdaa70000000000000000000000000000000000000000000000000000000081526004016105dc91906108fb565b60405180910390fd5b565b5f805f9054906101000a900473ffffffffffffffffffffffffffffffffffffffff169050815f806101000a81548173ffffffffffffffffffffffffffffffffffffffff021916908373ffffffffffffffffffffffffffffffffffffffff1602179055508173ffffffffffffffffffffffffffffffffffffffff168173ffffffffffffffffffffffffffffffffffffffff167f8be0079c531659141344cd1fd0a4f28419497f9722a3daafe3b4186f6b6457e060405160405180910390a35050565b5f33905090565b5f604051905090565b5f80fd5b5f80fd5b5f819050919050565b6106d2816106c0565b81146106dc575f80fd5b50565b5f813590506106ed816106c9565b92915050565b5f80fd5b5f80fd5b5f601f19601f8301169050919050565b7f4e487b71000000000000000000000000000000000000000000000000000000005f52604160045260245ffd5b610741826106fb565b810181811067ffffffffffffffff821117156107605761075f61070b565b5b80604052505050565b5f6107726106af565b905061077e8282610738565b919050565b5f67ffffffffffffffff82111561079d5761079c61070b565b5b6107a6826106fb565b9050602081019050919050565b828183375f83830152505050565b5f6107d36107ce84610783565b610769565b9050828152602081018484840111156107ef576107ee6106f7565b5b6107fa8482856107b3565b509392505050565b5f82601f830112610816576108156106f3565b5b81356108268482602086016107c1565b91505092915050565b5f8060408385031215610845576108446106b8565b5b5f610852858286016106df565b925050602083013567ffffffffffffffff811115610873576108726106bc565b5b61087f85828601610802565b9150509250929050565b5f8115159050919050565b61089d81610889565b82525050565b5f6020820190506108b65f830184610894565b92915050565b5f73ffffffffffffffffffffffffffffffffffffffff82169050919050565b5f6108e5826108bc565b9050919050565b6108f5816108db565b82525050565b5f60208201905061090e5f8301846108ec565b92915050565b61091d816108db565b8114610927575f80fd5b50565b5f8135905061093881610914565b92915050565b5f60208284031215610953576109526106b8565b5b5f6109608482850161092a565b91505092915050565b610972816106c0565b82525050565b5f81519050919050565b5f82825260208201905092915050565b5f5b838110156109af578082015181840152602081019050610994565b5f8484015250505050565b5f6109c482610978565b6109ce8185610982565b93506109de818560208601610992565b6109e7816106fb565b840191505092915050565b5f604082019050610a055f830185610969565b8181036020830152610a1781846109ba565b90509392505050565b7f4e487b71000000000000000000000000000000000000000000000000000000005f52602260045260245ffd5b5f6002820490506001821680610a6457607f821691505b602082108103610a7757610a76610a20565b5b50919050565b5f82825260208201905092915050565b7f496e76616c696420636f6d6d69746d656e7400000000000000000000000000005f82015250565b5f610ac1601283610a7d565b9150610acc82610a8d565b602082019050919050565b5f6020820190508181035f830152610aee81610ab5565b9050919050565b7f496e76616c69642070726f6f66000000000000000000000000000000000000005f82015250565b5f610b29600d83610a7d565b9150610b3482610af5565b602082019050919050565b5f6020820190508181035f830152610b5681610b1d565b9050919050565b5f819050815f5260205f209050919050565b5f6020601f8301049050919050565b5f82821b905092915050565b5f60088302610bb97fffffffffffffffffffffffffffffffffffffffffffffffffffffffffffffffff82610b7e565b610bc38683610b7e565b95508019841693508086168417925050509392505050565b5f819050919050565b5f819050919050565b5f610c07610c02610bfd84610bdb565b610be4565b610bdb565b9050919050565b5f819050919050565b610c2083610bed565b610c34610c2c82610c0e565b848454610b8a565b825550505050565b5f90565b610c48610c3c565b610c53818484610c17565b505050565b5b81811015610c7657610c6b5f82610c40565b600181019050610c59565b5050565b601f821115610cbb57610c8c81610b5d565b610c9584610b6f565b81016020851015610ca4578190505b610cb8610cb085610b6f565b830182610c58565b50505b505050565b5f82821c905092915050565b5f610cdb5f1984600802610cc0565b1980831691505092915050565b5f610cf38383610ccc565b9150826002028217905092915050565b610d0c82610978565b67ffffffffffffffff811115610d2557610d2461070b565b5b610d2f8254610a4d565b610d3a828285610c7a565b5f60209050601f831160018114610d6b575f8415610d59578287015190505b610d638582610ce8565b865550610dca565b601f198416610d7986610b5d565b5f5b82811015610da057848901518255600182019150602085019450602081019050610d7b565b86831015610dbd5784890151610db9601f891682610ccc565b8355505b6001600288020188555050505b505050505050565b7f41676520766572696669636174696f6e206661696c65640000000000000000005f82015250565b5f610e06601783610a7d565b9150610e1182610dd2565b602082019050919050565b5f6020820190508181035f830152610e3381610dfa565b905091905056fea264697066735822122082daa91435502cf775f23433e4075a7749c5d00ba558a0ea4f8c7df77993665b64736f6c63430008150033",
  "immutableReferences": {},
  "source": "// SPDX-License-Identifier: MIT\npragma solidity 0.8.21;\n\nimport \"@openzeppelin/contracts/access/Ownable.sol\";\n\ncontract ZKBlockMature is Ownable {\n    address private _owner;\n\n    constructor() Ownable(msg.sender) {\n        _owner = msg.sender;\n   }\n\n    // Structure to hold the commitment and the proof\n    struct Commitment {\n        bytes32 commitment;\n        bytes proof;\n    }\n\n    // Mapping to store commitments for each user\n    mapping(address => Commitment) public commitments;\n\n    // Event to log age verification\n    event AgeVerified(address indexed user, bool isEligible);\n\n    // Function to add a commitment\n    function addCommitment(bytes32 _commitment, bytes memory _proof) public {\n        commitments[msg.sender] = Commitment({\n            commitment: _commitment,\n            proof: _proof\n        });\n    }\n\n    // Simplified placeholder for ZKP verification\n    function verifyAge(bytes32 _commitment, bytes memory _proof) public view returns (bool) {\n        // In a real implementation, this function should verify the zero-knowledge proof\n        // Here, we simply check if the provided commitment and proof match the stored ones\n        Commitment memory storedCommitment = commitments[msg.sender];\n        require(storedCommitment.commitment == _commitment, \"Invalid commitment\");\n        require(keccak256(storedCommitment.proof) == keccak256(_proof), \"Invalid proof\");\n\n        // Placeholder logic for ZKP verification\n        // Assume the proof is valid if it matches the stored one\n        return true;\n    }\n\n    // Function to perform age verification\n    function performAgeVerification(bytes32 _commitment, bytes memory _proof) public {\n        bool isEligible = verifyAge(_commitment, _proof);\n        require(isEligible, \"Age verification failed\");\n\n        emit AgeVerified(msg.sender, isEligible);\n    }\n}\n",
  "sourcePath": "/Users/nico/nycode/PROJECTS/ZKBlockMature/contracts/ZKBlockMature.sol",
  "compiler": {
    "name": "solc",
    "version": "0.8.21+commit.d9974bed.Emscripten.clang"
  },
  "schemaVersion": "3.4.16",
  "updatedAt": "2024-06-23T07:48:04.296Z",
  "networkType": "ethereum",
  "devdoc": {
    "errors": {
      "OwnableInvalidOwner(address)": [
        {
          "details": "The owner is not a valid owner account. (eg. `address(0)`)"
        }
      ],
      "OwnableUnauthorizedAccount(address)": [
        {
          "details": "The caller account is not authorized to perform an operation."
        }
      ]
    },
    "kind": "dev",
    "methods": {
      "owner()": {
        "details": "Returns the address of the current owner."
      },
      "renounceOwnership()": {
        "details": "Leaves the contract without owner. It will not be possible to call `onlyOwner` functions. Can only be called by the current owner. NOTE: Renouncing ownership will leave the contract without an owner, thereby disabling any functionality that is only available to the owner."
      },
      "transferOwnership(address)": {
        "details": "Transfers ownership of the contract to a new account (`newOwner`). Can only be called by the current owner."
      }
    },
    "version": 1
  },
  "userdoc": {
    "kind": "user",
    "methods": {},
    "version": 1
  }
}